S01900004D5246636F6D6D4578706572696D656E742E7372656359
S113000013C0D3C021C020C01FC01EC01DC01CC04F
S11300101BC01AC019C018C017C016C015C014C020
S113002013C012C011C010C011241FBECFEFD2E004
S1130030DEBFCDBF22E0A0E0B1E001C01D92A3303D
S1130040B207E1F7D9D04CC3DBCF68D2FFD2089511
S113005000D38823E9F05C9A8FE493EC0197F1F7DD
S113006000C000005C988FE493EC0197F1F700C0A6
S113007000005D9A8FE493EC0197F1F700C0000053
S11300805D988FE493EC0197F1F700C000000895A8
S11300905F9A8FE493EC0197F1F700C000005F983A
S11300A08FE493EC0197F1F700C000005C9A8FE4B1
S11300B093EC0197F1F700C000005C988FE493EC97
S11300C00197F1F700C000005F9A8FE493EC019769
S11300D0F1F700C000005F988FE493EC0197F1F70B
S11300E000C000000895579A559A549A509885B1C3
S11300F08C6E85B984B18C6E84B924985D9A8FE432
S113010093EC0197F1F700C000005D988FE493EC45
S11301100197F1F700C00000A0D25D9A8FE493EC40
S11301200197F1F700C000005D988FE493EC01970C
S1130130F1F700C000005C9A8FE493EC0197F1F7AB
S113014000C000005C988FE493EC0197F1F700C0C5
S1130150000068D05F9A8FE493EC0197F1F700C038
S113016000005F988FE493EC0197F1F700C0000062
S11301705BD15F9A8FE493EC0197F1F700C0000024
S11301805F988FE493EC0197F1F700C000008EEFC5
S11301909AECB6D081E390E0BDD0E89AE9E6F0E0CD
S11301A0808182608083789408951F920F920FB6A5
S11301B00F9211242F933F934F935F936F937F93E9
S11301C08F939F93AF93BF93EF93FF93B3D1FF911B
S11301D0EF91BF91AF919F918F917F916F915F91BB
S11301E04F913F912F910F900FBE0F901F90189534
S11301F089B180958170089576DFCFE1D0E0F8DF92
S11302008111FDCFD093FD01C093FC0142E06CEF5E
S113021071E083E190E097D068E270E085E290E0DD
S113022047D1EDCF599887EA91E60197F1F700C0DD
S11302300000599A83E294EF0197F1F700C000009F
S11302400895CF93DF93C0E0D1E0880F8E77888341
S1130250198226E042E0BE01CE010CD28981DF91F1
S1130260CF910895CF93DF93C0E0D1E09C01369500
S11302702795369527953695279520682883829566
S1130280880F807E89831A8226E043E0BE01CE0176
S1130290F1D18A81DF91CF910895E0E0F1E0880FF8
S11302A08E7781608083618326E042E0BF01CF01C5
S11302B0E1D10895E0E0F1E09C013695279536956B
S11302C0279536952795206820838295880F807E10
S11302D080618183628326E043E0BF01CF01CAD1FC
S11302E00895CF9382E0ADDFC82F81E0AADF2C2FE1
S11302F030E0322F2227A901482BCA01CF9108955B
S1130300CF93C82F692F82E0C8DF6C2F81E0C5DF4F
S1130310CF910895CF93C82F692F84E0BEDF6C2F4F
S113032083E0BBDFCF910895CF9384E08ADFC82FA9
S113033083E087DF2C2F30E0322F2227A901482BBE
S1130340CA01CF910895DF92EF92FF920F931F930A
S1130350CF93DF93D82FC92F7B01D42E69E080E09F
S113036090E0A8DF60917B01675F6D0D81E090E014
S1130370A1DF61E682E090E09DDF68E883E090E041
S113038099DF61E084E090E095DFABDF192F682FFF
S113039085E090E08FDF612F86E090E08BDF6D2FAA
S11303A087E090E087DF6C2F88E090E083DFBCDF9C
S11303B0C92F682F89E090E07DDF6C2F8AE090E000
S11303C079DFC0917B01D0917C012B96DD2061F017
S11303D08701ED0CF11CF80161918F01CE016ADFF8
S11303E021960E151F05B9F765E08BE156DFDF9105
S11303F0CF911F910F91FF90EF90DF90089510928D
S1130400FF0166EF82E349DF0895682F70E06B50C7
S1130410710962957295707F7627607F7627636095
S113042080E092E047DF08951092000267E08AE2DC
S113043034DF68E988E131DF65E98EE22EDF63E0CD
S113044080E092E037DF61E081E092E033DF60E852
S113045082E092E02FDF60E986E092E02BDF60E843
S113046087E092E027DF60E188E092E023DF61E249
S113047080E292E01FDF60E88AE30FDF60E68FE34B
S11304800CDF60E48EE309DFBADF84E1BEDF64E001
S113049086E303DF60E086E300DF1092020210923D
S11304A0010289EF90E00197F1F700C00000089580
S11304B0CF93DF93FC019091FF0191112CC0EB01CC
S11304C05D9A8FE493EC0197F1F700C000005D980A
S11304D08FE493EC0197F1F700C0000080910202D1
S11304E0882319F010920202099580910102882351
S11304F091F05C9AEFE4F3EC3197F1F700C000005F
S11305005C988FE493EC0197F1F700C0000010921F
S11305100102FE010995DF91CF91089580910002B7
S11305208460089564E089E3B8DE089560E089E3B7
S1130530B4DE0895AF92BF92CF92DF92EF92FF9212
S11305400F931F93CF93DF9381E08093FF0181E3A7
S113055078DEB82E83FF4FC0809102028F5F8093B4
S11305600202E0DF80E093E07DDEA82E80910002AD
S1130570EA2CF12C1E141F049CF4C7019C0123587F
S11305803E4F6901CDE7D1E001E013E00D57114082
S1130590C8018C0F9D1F66DE8993CC15DD05C1F75C
S11305A08091040190E00B9718161906ACF4C5E08D
S11305B0D1E0C12CD12C04E011E03FEFC31AD30ADF
S11305C0C601875F9C4F4EDE8993F801808190E0DD
S11305D00B97C816D9068CF3A0920401C7018F5F4C
S11305E09C4F40DE80937901C7018E5F9C4F3ADEB9
S11305F080937A019BDFB0FE1CC0809101028F5F63
S11306008093010284E21DDE8093FE01982F9F7384
S113061021E009F020E09091030120FB90F98295FC
S1130620869586958370880F997F892B877F809321
S113063003011092FF01DF91CF911F910F91FF9061
S1130640EF90DF90CF90BF90AF90089585E091E058
S11306500895809103018170089581E58CBD08950A
S1130660FC0180818EBD0DB407FEFDCF8EB5FB016C
S113067080830895CF92DF92EF92FF920F931F939E
S1130680CF93DF93EC018B0185B161E070E06B01E6
S113069002C0CC0CDD1C2A95E2F79C2D9095892391
S11306A085B9442389F04150E42EF12C8FEFE81AE8
S11306B0F80AEC0EFD1EB801CE01D2DF21960F5FC1
S11306C01F4FEC16FD06B9F785B1C82AC5B8DF91EE
S11306D0CF911F910F91FF90EF90DF90CF900895ED
S10706E0F894FFCFB8
S9030000FC
