S01200004D6573682D42657461362E73726563A6
S113000013C02EC02CC02BC02AC029C028C027C0B2
S113001026C025C024C023C022C021C020C01FC0C8
S11300201EC01DC01CC01BC011241FBECFEFD2E0D8
S1130030DEBFCDBF11E0A0E0B1E0E6E7F4E002C02E
S113004005900D92A030B107D9F722E0A0E0B1E00D
S113005001C01D92AC35B207E1F766D00AC2D0CF19
S11300601F920F920FB60F9211242F933F934F9329
S11300705F936F937F938F939F93AF93BF93EF930C
S1130080FF938091000180618093000123D18091CE
S113009000018F7E80930001FF91EF91BF91AF919A
S11300A09F918F917F916F915F914F913F912F918C
S11300B00F900FBE0F901F901895559A569A579A05
S11300C085B18C6E85B984B18C6E84B924988ED137
S11300D02DD0B4D08EEF9AEC88D081E090E08FD010
S11300E07894E89AE9E6F0E080818260808388E28F
S11300F0E6E2F2E0DF01982F1D929A95E9F7EEEF20
S1130100F1E0DF011D928A95E9F75F9A8FE493ECA1
S11301100197F1F700C000005F98AFE4B3EC1197CA
S1130120F1F700C000000895C8DFFFCF599887EAAF
S113013091E60197F1F700C00000599A83E294EF29
S11301400197F1F700C000000895CF93DF93C1E059
S1130150D1E0880F8E778883198226E042E0BE01C1
S1130160CE0151D18981DF91CF910895CF93DF934F
S1130170C1E0D1E09C0136952795369527953695B3
S11301802795206828838295880F807E89831A8228
S113019026E043E0BE01CE0136D18A81DF91CF91C2
S11301A00895E1E0F1E0880F8E77816080836183B8
S11301B026E042E0BF01CF0126D10895E1E0F1E05D
S11301C09C01369527953695279536952795206871
S11301D020838295880F807E80618183628326E0FC
S11301E043E0BF01CF010FD10895CF93C82F692FEA
S11301F082E0D7DF6C2F81E0D4DFCF910895CF93D5
S1130200C82F692F84E0CDDF6C2F83E0CADFCF9144
S113021008951092540266EF82E3C3DF0895682FB5
S113022070E06B50710962957295707F7627607FDC
S11302307627636080E092E0C1DF0895109259024E
S113024067E08AE2AEDF68E988E1ABDF65E98EE268
S1130250A8DF63E080E092E0B1DF61E081E092E05A
S1130260ADDF60E882E092E0A9DF60E986E092E039
S1130270A5DF60E887E092E0A1DF60E188E092E03A
S11302809DDF61E280E292E099DF60E88AE389DF42
S113029060E68FE386DF60E48EE383DFBADF84E128
S11302A0BEDF64E086E37DDF60E086E37ADF109200
S11302B05B0210925A0289EF90E00197F1F700C0B7
S11302C00000089564E089E36CDF089560E089E349
S11302D068DF0895AF92BF92CF92DF92EF92FF92C0
S11302E00F931F93CF93DF9381E08093540281E3B4
S11302F02CDFB82E83FF4FC080915B028F5F809309
S11303005B02E0DF80E093E031DFA82E80915902A8
S1130310EA2CF12C1E141F049CF4C7019C012458E0
S11303203E4F6901CCE7D1E001E013E00C571140E6
S1130330C8018C0F9D1F1ADF8993CC15DD05C1F709
S11303408091050190E00B9718161906ACF4C6E0ED
S1130350D1E0C12CD12C05E011E03FEFC31AD30A40
S1130360C601875F9C4F02DF8993F801808190E08A
S11303700B97C816D9068CF3A0920501C7018F5FAD
S11303809C4FF4DE80937A01C7018E5F9C4FEEDEB2
S113039080937B019BDFB0FE1CC080915A028F5F6B
S11303A080935A0284E2D1DE80935302982F9F7384
S11303B021E009F020E09091040120FB90F982955E
S11303C0869586958370880F997F892B877F809384
S11303D0040110925402DF91CF911F910F91FF906D
S11303E0EF90DF90CF90BF90AF90089581E58CBDE2
S11303F00895FC0180818EBD0DB407FEFDCF8EB53E
S1130400FB0180830895CF92DF92EF92FF920F93C6
S11304101F93CF93DF93EC018B0185B161E070E012
S11304206B0102C0CC0CDD1C2A95E2F79C2D909543
S1130430892385B9442389F04150E42EF12C8FEFB0
S1130440E81AF80AEC0EFD1EB801CE01D2DF21969F
S11304500F5F1F4FEC16FD06B9F785B1C82AC5B862
S1130460DF91CF911F910F91FF90EF90DF90CF908C
S10904700895F894FFCF8B
S9030000FC
