S01200004D6573682D42657461362E73726563A6
S113000013C054C22CC02BC02AC029C028C027C08A
S113001026C025C024C023C022C021C020C01FC0C8
S11300201EC01DC01CC01BC011241FBECFEFD2E0D8
S1130030DEBFCDBF11E0A0E0B1E0E8E8FAE002C025
S113004005900D92AE30B107D9F722E0AEE0B1E0F1
S113005001C01D92A937B207E1F792D213C5D0CFE0
S1130060FC01208130E0322F22278181A901482B15
S1130070CA010895FC017083618308950895CF92A5
S1130080DF92FF920F931F93CF93DF93CDB7DEB729
S1130090C055D1090FB6F894DEBF0FBECDBF6C01B9
S11300A08B010F2EF8E2FF2EF02DFB018F2D119204
S11300B08A95E9F740E550E061E070E0CE010196F1
S11300C0DAD440E5BE016F5F7F4FC601FBD2F80171
S11300D01192FA94E9F7C05BDF4F0FB6F894DEBFD4
S11300E00FBECDBFDF91CF911F910F91FF90DF9095
S11300F0CF9008950F93CF93DF9320915E02222334
S113010079F0FC01208521110BC0EC0100E040E0F6
S113011063E475E451D4CE010296A2DFBE01AFDFE1
S1130120DF91CF910F9108950F93CF93C82F00E0E3
S113013020E040E065E575E486E392E03DD45D9A15
S11301408FE493EC0197F1F700C000005D988FE411
S113015093EC0197F1F700C0000066E372E08C2F86
S113016090E08DDFCF910F91089528E2FC01119268
S11301702A95E9F7BC0180910001909101017FDF8C
S113018010D2089588E2E6E3F2E0DF01982F1D9291
S11301909A95E9F7EEE0F2E0DF011D928A95E9F71E
S11301A086E392E0E2DF08950F93CF93DF932091EB
S11301B05E02222369F0EC0100E020E040E06EECF6
S11301C070E0FAD3BE0180915F029091600257DF24
S11301D0DF91CF910F9108950F93CF93DF93EC01AB
S11301E000E020E040E065E575E586E392E0E4D3D5
S11301F0CE01029635DF66E372E041DFDF91CF91F5
S11302000F9108950F93CF93DF93EC015E9A8FE4DF
S113021093EC0197F1F700C000005E988FE493EC33
S11302200197F1F700C0000086E392E0BFD3E881B4
S1130230F0E0EE0FFF1FED5FFE4F8081918101978B
S113024009F4219600E020E040E062E472E486E3F1
S113025092E0B2D386E392E088DFE881F0E0EE0F2B
S1130260FF1FED5FFE4F66E372E08081918107DF3F
S1130270DF91CF910F910895FF920F931F93CF9326
S1130280DF938C01E4E6F0E08081808385B58860AB
S113029085BD85B5856085BD16BCF12CC0E0D1E077
S11302A05CC06EE370E08EE292E0CAD2A89BFECFFF
S11302B016BCD5BBCF5FCF3008F44FC05D9A8FE436
S11302C093EC0197F1F700C000005D98AFE4B3EC44
S11302D01197F1F700C00000F394B2E0BF1528F4C1
S11302E0F80180818F5F8083F12CD8019C918091EB
S11302F00201891740F410920C02D0935E0286E347
S113030092E052DF2AC05F9AEFE4F3EC3197F1F701
S113031000C000005F988FE493EC0197F1F700C0F0
S11303200000D801EC91F0E0EE0FFF1FED5FFE4FEF
S113033080819181029709F45E9AEFE4F3EC31979E
S1130340F1F700C000005E988FE493EC0197F1F799
S113035000C00000C80156DFC0E080910C0281306B
S113036009F49FCFDF91CF911F910F91FF900895D2
S1130370FC018085811115C010920C02CF010296F8
S11303806FDEE1E7F2E08083918390910D029F5F3D
S113039090930D02923019F491E090935E02C4DEC2
S11303A0089590910F019F5F90930F018091020136
S11303B0891740F410920C0281E080935E02CF0111
S11303C00BDF08958FE091E057DF08950F93CF93EB
S11303D0DF93EC015F9A8FE493EC0197F1F700C08F
S11303E000005F988FE493EC0197F1F700C00000E0
S11303F000E020E040910D0264E474E486E392E0BE
S1130400DBD2CE0102962CDE66E372E038DEDF91A9
S1130410CF910F910895CF93DF93EC01069620DEE0
S1130420843424E49207A9F020F48234924471F0D5
S113043012C0823525E4920721F08535954421F0D8
S11304400AC0CE0157DE07C09DDE05C0CE01BEDF67
S113045002C0CE018DDFDF91CF910895CF93DF935A
S113046080910E01886080930E0104D2EC019BD22E
S1130470AE01BC018EE092E0F5D25F9A8FE493EC7A
S11304800197F1F700C000005F988FE493EC0197A7
S1130490F1F700C000008EE092E0BDDF80910E0114
S11304A0877F80930E01DF91CF9108951F920F9261
S11304B00FB60F9211242F933F934F935F936F9333
S11304C07F938F939F93AF93BF93EF93FF93809109
S11304D00E01806180930E01DAD180910E018F7E2E
S11304E080930E01FF91EF91BF91AF919F918F91F6
S11304F07F916F915F914F913F912F910F900FBE1C
S11305000F901F901895559A569A579A85B18C6EEC
S113051085B984B18C6E84B9249861D242D04CD10F
S11305208EEF9AECACD081E090E0B3D07894E89A66
S1130530E9E6F0E080818260808388E2E6E3F2E02D
S1130540DF01982F1D929A95E9F7EEE0F2E0DF01C2
S11305501D928A95E9F710925E0210920C02109295
S11305600D025F9A8FE493EC0197F1F700C000004D
S11305705F98AFE4B3EC1197F1F700C00000089561
S1130580C2DF80910C02811109C06EE370E08EE23B
S113059092E056D180910C028823B9F380E090E078
S11305A00895599887EA91E60197F1F700C0000091
S11305B0599A83E294EF0197F1F700C0000008957F
S11305C0CF93DF93C0E1D1E0880F8E7788831982BF
S11305D026E042E0BE01CE010FD28981DF91CF91A6
S11305E00895CF93DF93C0E1D1E09C013695279520
S11305F03695279536952795206828838295880F08
S1130600807E89831A8226E043E0BE01CE01F4D1C4
S11306108A81DF91CF910895E0E1F1E0880F8E7730
S113062081608083618326E042E0BF01CF01E4D191
S11306300895E0E1F1E09C013695279536952795DC
S113064036952795206820838295880F807E806167
S11306508183628326E043E0BF01CF01CDD10895B9
S1130660CF9382E0ADDFC82F81E0AADF2C2F30E0EA
S1130670322F2227A901482BCA01CF910895CF9385
S1130680C82F692F82E0C8DF6C2F81E0C5DFCF91CE
S11306900895CF93C82F692F84E0BEDF6C2F83E0C9
S11306A0BBDFCF910895CF9384E08ADFC82F83E026
S11306B087DF2C2F30E0322F2227A901482BCA01D3
S11306C0CF910895BF92CF92DF92EF92FF920F9352
S11306D01F93CF93DF93D82FC92F7B01B42E69E0EA
S11306E080E090E0A6DF60918B01675F6B0D81E095
S11306F090E09FDF61E682E090E09BDF68E883E0C2
S113070090E097DF61E084E090E093DFA9DF192FA8
S1130710682F85E090E08DDF612F86E090E089DF2F
S11307206D2F87E090E085DF6C2F88E090E081DF1B
S1130730BADFC92F682F89E090E07BDF6C2F8AE055
S113074090E077DFC0908B01D0908C018BE0C80ED5
S1130750D11CBB2061F08601E701EB0CF11C69910F
S1130760C80167DF0F5F1F4FCE15DF05C1F76B2D83
S1130770C6015FDF65E08BE14FDFDF91CF911F9111
S11307800F91FF90EF90DF90CF90BF90089510925B
S1130790700266EF82E340DF0895682F70E06B50CB
S11307A0710962957295707F7627607F7627636002
S11307B080E092E03EDF08951092760267E08AE2DC
S11307C02BDF68E988E128DF65E98EE225DF63E055
S11307D080E092E02EDF61E081E092E02ADF60E8D1
S11307E082E092E026DF60E986E092E022DF60E8C2
S11307F087E092E01EDF60E188E092E01ADF61E2C8
S113080080E292E016DF60E88AE306DF60E68FE3C9
S113081003DF60E48EE300DFBADF84E1BEDF64E07F
S113082086E3FADE60E086E3F7DE10927802109247
S1130830770289EF90E00197F1F700C00000089576
S1130840CF93DF9320917002211111C0EB01FC01C1
S113085020917802222319F0109278020995809150
S11308607702882321F010927702FE010995DF9127
S1130870CF9108958091140190E00B97089564E05E
S113088089E3CADE089560E089E3C6DE0895AF9285
S1130890BF92CF92DF92EF92FF920F931F93CF9369
S11308A0DF9381E08093700281E38ADEB82E83FFB8
S11308B04FC0809178028F5F80937802E0DF80E000
S11308C093E08FDEA82E80917602EA2CF12C1E1480
S11308D01F049CF4C7019C0123573E4F6901CDE8D6
S11308E0D1E001E013E00D581140C8018C0F9D1FA9
S11308F078DE8993CC15DD05C1F78091140190E071
S11309000B9718161906ACF4C5E1D1E0C12CD12C13
S113091004E111E03FEFC31AD30AC601875F9C4F7D
S113092060DE8993F801808190E00B97C816D906A0
S11309308CF3A0921401C7018F5F9C4F52DE809309
S11309408901C7018E5F9C4F4CDE80938A019BDF37
S1130950B0FE1CC0809177028F5F8093770284E29F
S11309602FDE80936F02982F9F7321E009F020E01F
S11309709091130120FB90F982958695869583705A
S1130980880F997F892B877F8093130110927002BF
S1130990DF91CF911F910F91FF90EF90DF90CF9057
S11309A0BF90AF90089585E191E0089528E2FC019D
S11309B011922A95E9F70895FF920F931F93CF930D
S11309C0DF93EC01F42E122F069654DBF9861A8776
S11309D00B87DF91CF911F910F91FF90089581E5CF
S11309E08CBD0895FC0180818EBD0DB407FEFDCF42
S11309F08EB5FB0180830895CF92DF92EF92FF9230
S1130A000F931F93CF93DF93EC018B0185B161E0CA
S1130A1070E06B0102C0CC0CDD1C2A95E2F79C2D22
S1130A209095892385B9442389F04150E42EF12C13
S1130A308FEFE81AF80AEC0EFD1EB801CE01D2DFE2
S1130A4021960F5F1F4FEC16FD06B9F785B1C82A32
S1130A50C5B8DF91CF911F910F91FF90EF90DF9078
S1130A60CF900895FB01DC0102C001900D9241502A
S1130A705040D8F70895DC0101C06D9341505040B7
S10B0A80E0F70895F894FFCF9C
S1110A884231050100020003000400050000D5
S9030000FC
