S01200004D6573682D42657461362E73726563A6
S113000013C09EC12CC02BC02AC029C028C027C041
S113001026C025C024C023C022C021C020C01FC0C8
S11300201EC01DC01CC01BC011241FBECFEFD2E0D8
S1130030DEBFCDBF11E0A0E0B1E0E4E3F9E002C02F
S113004005900D92AC30B107D9F722E0ACE0B1E0F5
S113005001C01D92AD36B207E1F7E6D169C4D0CF35
S1130060FC01208130E0322F22278181A901482B15
S1130070CA010895FC01708361830895089502966E
S1130080EFDF90935E0280935D02559A80910B029C
S11300908F5F80930B0208950F931F93CF93DF9389
S11300A08C01EB0168E2CE01DBD3B801CE01DBD3D6
S11300B061E0CE01EDD348E2BE01C80157D2DF9121
S11300C0CF911F910F9108950F93CF93DF932091B8
S11300D05C02222379F0FC01268121110BC0EC0182
S11300E000E040E063E475E4C0D3CE010296B8DFDB
S11300F0BE01D2DFDF91CF910F9108950F93CF937B
S1130100C82F88E2E4E3F2E0DF011D928A95E9F763
S113011000E020E040E065E575E4CF01A6D364E3A8
S113012072E08C2F90E0B8DFCF910F9108950F9378
S1130130CF93DF93EC0100E020E040E065E575E556
S113014084E392E092D3CE0102968ADF64E372E004
S1130150A3DFDF91CF910F9108950F93CF93DF9396
S1130160EC0100E020E040E062E472E484E392E029
S11301707CD364E372E0CE018FDFDF91CF910F91E6
S113018008951F93CF93DF93EC0116BC10E01EC0BB
S11301906EE370E083E791E0A7D286B58F3F09F460
S11301A01F5F163260F0E881EF5FE883F0E0EE0F46
S11301B0FF1FEF5FFE4F80819181CFDF10E09881B8
S11301C080910001891710F410920A0280910A02AA
S11301D08130F1F2DF91CF911F910895FC01868166
S11301E081111AC010920A02CF01029639DF90934E
S11301F066028093650280910B028F5F80930B02ED
S1130200569A80910B02823019F481E080935C024B
S11302108091650273DF089590910D019F5F909323
S11302200D0180910001891728F4CF0180DF10921D
S11302300A0208958DE091E0A4DF089510920D0163
S113024021E020930A021BDFE0910D01F0E0EE0FA4
S1130250FF1FEF5FFE4F808191817FDF8DE091E092
S113026090DF08950F93CF93DF93EC0100E020E03B
S113027040E064E474E484E392E0F7D280910B02FA
S113028080933A02CE010296EBDE64E372E004DF6F
S113029084E392E0DFD2DF91CF910F910895CF9361
S11302A0DF93EC010496DCDE843424E49207B1F09D
S11302B020F48234924479F013C0823525E4920705
S11302C021F08535954421F00BC0CE01FDDE08C038
S11302D0CE01B4DF05C0CE01C5DF02C0CE017EDF92
S11302E0DF91CF910895CF93DF9380910C018860C3
S11302F080930C0113D2EC01AAD2AE01BC018CE0B4
S113030092E00DD38CE092E0ABDE019789F45F9A22
S11303108FE493EC0197F1F700C000005F988FE43D
S113032093EC0197F1F700C000008CE092E0B7DF96
S113033080910C01877F80930C01DF91CF91089508
S11303401F920F920FB60F9211242F933F934F9346
S11303505F936F937F938F939F93AF93BF93EF9329
S1130360FF9380910C01806180930C01E4D1809112
S11303700C018F7E80930C01FF91EF91BF91AF919F
S11303809F918F917F916F915F914F913F912F91A9
S11303900F900FBE0F901F901895559A569A579A22
S11303A085B18C6E85B984B18C6E84B9249874D26D
S11303B04CD056D18EEF9AECB6D081E090E0BDD00F
S11303C07894E89AE9E6F0E080818260808388E2AC
S11303D0E4E3F2E0DF01982F1D929A95E9F7ECE04F
S11303E0F2E0DF011D928A95E9F710925C02109207
S11303F00A0210920B02E4E6F0E08081808385B566
S1130400886085BD85B5856085BD5F9A8FE493EC72
S11304100197F1F700C000005F98AFE4B3EC1197C7
S1130420F1F700C000000895B8DF80910A0281113D
S113043009C06EE370E083E791E056D180910A022F
S11304408823B9F380E090E00895599887EA91E60B
S11304500197F1F700C00000599A83E294EF0197E5
S1130460F1F700C000000895CF93DF93CEE0D1E010
S1130470880F8E778883198226E042E0BE01CE0180
S113048018D28981DF91CF910895CF93DF93CEE085
S1130490D1E09C0136952795369527953695279575
S11304A0206828838295880F807E89831A8226E0BB
S11304B043E0BE01CE01FDD18A81DF91CF91089541
S11304C0EEE0F1E0880F8E7781608083618326E01F
S11304D042E0BF01CF01EDD10895EEE0F1E09C01CF
S11304E03695279536952795369527952068208348
S11304F08295880F807E80618183628326E043E059
S1130500BF01CF01D6D10895CF9382E0ADDFC82FCC
S113051081E0AADF2C2F30E0322F2227A901482BBB
S1130520CA01CF910895CF93C82F692F82E0C8DF05
S11305306C2F81E0C5DFCF910895CF93C82F692F29
S113054084E0BEDF6C2F83E0BBDFCF910895CF93AF
S113055084E08ADFC82F83E087DF2C2F30E0322F3E
S11305602227A901482BCA01CF910895BF92CF92A7
S1130570DF92EF92FF920F931F93CF93DF93D82FC5
S1130580C92F7B01B42E69E080E090E0A6DF609182
S11305908901675F6B0D81E090E09FDF61E682E097
S11305A090E09BDF68E883E090E097DF61E084E01F
S11305B090E093DFA9DF192F682F85E090E08DDFAD
S11305C0612F86E090E089DF6D2F87E090E085DF82
S11305D06C2F88E090E081DFBADFC92F682F89E0B3
S11305E090E07BDF6C2F8AE090E077DFC090890198
S11305F0D0908A018BE0C80ED11CBB2061F086012B
S1130600E701EB0CF11C6991C80167DF0F5F1F4F15
S1130610CE15DF05C1F76B2DC6015FDF65E08BE109
S11306204FDFDF91CF911F910F91FF90EF90DF90FB
S1130630CF90BF9008951092640266EF82E340DF8A
S11306400895682F70E06B50710962957295707F00
S11306507627607F7627636080E092E03EDF08952E
S113066010926A0267E08AE22BDF68E988E128DFFA
S113067065E98EE225DF63E080E092E02EDF61E051
S113068081E092E02ADF60E882E092E026DF60E920
S113069086E092E022DF60E887E092E01EDF60E11E
S11306A088E092E01ADF61E280E292E016DF60E81F
S11306B08AE306DF60E68FE303DF60E48EE300DFB6
S11306C0BADF84E1BEDF64E086E3FADE60E086E35D
S11306D0F7DE10926C0210926B0289EF90E00197A2
S11306E0F1F700C000000895CF93DF9320916402D6
S11306F0211111C0EB01FC0120916C02222319F09D
S113070010926C02099580916B02882321F010925B
S11307106B02FE010995DF91CF910895809112013A
S113072090E00B97089564E089E3CADE089560E0E1
S113073089E3C6DE0895AF92BF92CF92DF92EF9223
S1130740FF920F931F93CF93DF9381E08093640212
S113075081E38ADEB82E83FF4FC080916C028F5FE5
S113076080936C02E0DF80E093E08FDEA82E80911E
S11307706A02EA2CF12C1E141F049CF4C7019C018C
S113078025573E4F6901CBE8D1E001E013E00B5857
S11307901140C8018C0F9D1F78DE8993CC15DD05AF
S11307A0C1F78091120190E00B9718161906ACF46A
S11307B0C3E1D1E0C12CD12C02E111E03FEFC31A17
S11307C0D30AC601875F9C4F60DE8993F80180815C
S11307D090E00B97C816D9068CF3A0921201C701BA
S11307E08F5F9C4F52DE80938701C7018E5F9C4FC1
S11307F04CDE809388019BDFB0FE1CC080916B02AD
S11308008F5F80936B0284E22FDE80936302982FC4
S11308109F7321E009F020E09091110120FB90F9F1
S11308208295869586958370880F997F892B877F1B
S11308308093110110926402DF91CF911F910F9167
S1130840FF90EF90DF90CF90BF90AF90089583E139
S113085091E0089528E2FC0111922A95E9F70895A0
S1130860FC016383089506DC0895FF920F931F93A0
S1130870CF93DF93EC01F42E122F0496FBDBFF825F
S113088018870987DF91CF911F910F91FF900895E9
S113089070E00296EFDB089581E58CBD0895FC01BC
S11308A080818EBD0DB407FEFDCF8EB5FB01808324
S11308B00895CF92DF92EF92FF920F931F93CF93FD
S11308C0DF93EC018B0185B161E070E06B0102C044
S11308D0CC0CDD1C2A95E2F79C2D9095892385B9D3
S11308E0442389F04150E42EF12C8FEFE81AF80AE2
S11308F0EC0EFD1EB801CE01D2DF21960F5F1F4F13
S1130900EC16FD06B9F785B1C82AC5B8DF91CF91B9
S11309101F910F91FF90EF90DF90CF900895FB010E
S1130920DC0102C001900D9241505040D8F7089567
S1070930F894FFCF65
S10F09340501000200030004000500009F
S9030000FC
