S01200004D6573682D42657461362E73726563A6
S113000013C0A1C22CC02BC02AC029C028C027C03D
S113001026C025C024C023C022C021C020C01FC0C8
S11300201EC01DC01CC01BC011241FBECFEFD2E0D8
S1130030DEBFCDBF11E0A0E0B1E0ECE0FBE002C028
S113004005900D92AE30B107D9F722E0AEE0B1E0F1
S113005001C01D92A937B207E1F7E1D255C5D0CF4F
S1130060FC01208130E0322F22278181A901482B15
S1130070CA010895FC01708361830895089502966E
S1130080EFDF90935F0280935E02019751F55D9AD2
S11300908FE493EC0197F1F700C000005D988FE4C2
S11300A093EC0197F1F700C000005E9A8FE493ECA3
S11300B00197F1F700C000005E988FE493EC01977C
S11300C0F1F700C000005F9A8FE493EC0197F1F719
S11300D000C000005F988FE493EC0197F1F700C033
S11300E0000020915E0230915F02809100019091A6
S11300F001012817390751F55D9A8FE493EC0197B4
S1130100F1F700C000005D988FE493EC0197F1F7DC
S113011000C000005E9A8FE493EC0197F1F700C0F1
S113012000005E988FE493EC0197F1F700C00000A3
S11301305F9A8FE493EC0197F1F700C000005F9899
S11301408FE493EC0197F1F700C0000080910C025A
S11301508F5F80930C0208950F931F93CF93DF93C7
S11301608C01EB015E9A8FE493EC0197F1F700C0E8
S113017000005E988FE493EC0197F1F700C0000053
S113018068E2CE0154D4B801CE0154D462E070E0E8
S1130190CE0168D448E2BE01C801DED2DF91CF911E
S11301A01F910F910895EF920F93CF93DF932091B6
S11301B05D02222381F0FC01208521110CC0EC0199
S11301C0E12C00E040E063E475E436D4CE0102960D
S11301D047DFBE01C1DFDF91CF910F91EF9008950A
S11301E0EF920F93CF93C82FE12C00E020E040E082
S11301F065E575E485E392E01FD465E372E08C2F36
S113020090E0AADF10920B02CF910F91EF90089526
S1130210BC0180910001909101019EDF0895EF924D
S11302200F93CF93DF93EC0180915D02882369F0F3
S11302305E9A67E777E785E392E017D4BE01809181
S11302405E0290915F0288DF15C0E12C00E020E09F
S113025040E06EEC70E085E392E0EED368E878E885
S113026085E392E002D45F9ABE01809100019091EF
S1130270010172DFDF91CF910F91EF900895EF921A
S11302800F93CF93DF93E12C00E020E040E065E59D
S113029075E585E392E0D0D3CEE5D2E065E372E084
S11302A08881998159DF88819981019709F45F9A3E
S11302B0DF91CF910F91EF900895FC0120852111DA
S11302C01EC00296CDDE90937202809371028091DB
S11302D00C028F5F80930C025F9880910C02823035
S11302E020F081E080935D0203C080915D02811162
S11302F05D9A10920B028091710272DF08958091D1
S113030063028F5F8093630290910201981790F4C7
S113031089E999E9909372028093710210920B0219
S113032081E080935D025D9A69E979E985E392E071
S11303309CD3A5DF0895EF920F9380916302E82F79
S1130340F0E0EE0FFF1FED5FFE4F20813181223080
S1130350310519F48F5F80936302E12C00E020E003
S113036040E062E472E485E392E066D385E392E0E0
S11303704FDFE0916302F0E0EE0FFF1FED5FFE4FF1
S113038065E372E080819181E7DE0F91EF9008953B
S11303901F93CF93DF9382E080930B025F9AE4E68E
S11303A0F0E08081808385B5886085BD85B58560F2
S11303B085BD16BCD1E025C06EE370E08BE792E00A
S11303C080D2A89BF9CF16BCD5BBC150E1F485E31C
S11303D092E01EDFB0DF1150A9F45D9A8FE493EC34
S11303E00197F1F700C000005D988FE493EC01974A
S11303F0F1F700C00000809163028F5F8093630275
S11304009ADF12E0CAE080910B02823019F4A89BB3
S1130410D3CFD9CFDF91CF911F910895EF920F934E
S1130420CF93DF93EC0181E080930B02E12C00E099
S113043020E041E060E070E085E392E0FDD285E3F6
S113044092E0E6DE10920C02CE0119DE74DFCE01DA
S11304509FDFDF91CF910F91EF900895EF920F936B
S1130460CF93DF93EC01E12C00E020E040910C02FB
S113047064E474E485E392E0DFD285E392E0C8DECD
S1130480CE010296EDDD65E372E066DEDF91CF9189
S11304900F91EF900895CF93DF93EC010696E0DD82
S11304A0843424E49207E1F038F48E3C9105F1F0B1
S11304B08234924491F01CC0853525E4920751F0B2
S11304C0853525E5920779F08235954489F4CE0186
S11304D06ADE0EC0CE01A2DF0BC0CE01BFDF08C0B2
S11304E0CE01EBDE05C0CE019ADE02C0CE0190DE65
S11304F0DF91CF910895CF93DF9380910E018860AF
S113050080930E01F8D1EC018FD2AE01BC018DE0D5
S113051092E0F1D25F9A8FE493EC0197F1F700C077
S113052000005F988FE493EC0197F1F700C000009E
S11305308DE092E0B0DF80910E01877F80930E0101
S1130540DF91CF9108951F920F920FB60F9211244D
S11305502F933F934F935F936F937F938F939F93C7
S1130560AF93BF93EF93FF9380910E0180618093CB
S11305700E01CED180910E018F7E80930E01FF91EA
S1130580EF91BF91AF919F918F917F916F915F9107
S11305904F913F912F910F900FBE0F901F90189580
S11305A0559A569A579A85B18C6E85B984B18C6EDA
S11305B084B924985DD23FD040D18EEF9AECA9D073
S11305C082E090E0B0D07894E89AE9E6F0E08081A7
S11305D08260808388E2E5E3F2E0DF01982F1D92D8
S11305E09A95E9F7EDE0F2E0DF011D928A95E9F7CB
S11305F010925D0210920B0210920C021092630290
S11306005F9A8FE493EC0197F1F700C000005F98C4
S1130610AFE4B3EC1197F1F700C000000895C0DF18
S113062005C06EE370E08BE792E04BD180910B0242
S11306308823B9F3FDCF599887EA91E60197F1F73A
S113064000C00000599A83E294EF0197F1F700C0CB
S113065000000895CF93DF93CFE0D1E0880F8E7729
S11306608883198226E042E0BE01CE010ED2898140
S1130670DF91CF910895CF93DF93CFE0D1E09C0138
S1130680369527953695279536952795206828839E
S11306908295880F807E89831A8226E043E0BE011A
S11306A0CE01F3D18A81DF91CF910895EFE0F1E09B
S11306B0880F8E7781608083618326E042E0BF01EA
S11306C0CF01E3D10895EFE0F1E09C013695279541
S11306D03695279536952795206820838295880F2F
S11306E0807E80618183628326E043E0BF01CF0185
S11306F0CCD10895CF9382E0ADDFC82F81E0AADF8B
S11307002C2F30E0322F2227A901482BCA01CF9188
S11307100895CF93C82F692F82E0C8DF6C2F81E042
S1130720C5DFCF910895CF93C82F692F84E0BEDF32
S11307306C2F83E0BBDFCF910895CF9384E08ADFF1
S1130740C82F83E087DF2C2F30E0322F2227A90126
S1130750482BCA01CF910895DF92EF92FF920F9335
S11307601F93CF93DF93D82FC92F7B01D42E69E039
S113077080E090E0A8DF60918A01675F6D0D81E001
S113078090E0A1DF61E682E090E09DDF68E883E02D
S113079090E099DF61E084E090E095DFABDF192F12
S11307A0682F85E090E08FDF612F86E090E08BDF9B
S11307B06D2F87E090E087DF6C2F88E090E083DF87
S11307C0BCDFC92F682F89E090E07DDF6C2F8AE0C1
S11307D090E079DFC0918A01D0918B012B96DD20C6
S11307E061F08701ED0CF11CF80161918F01CE01DC
S11307F06ADF21960E151F05B9F765E08BE156DF18
S1130800DF91CF911F910F91FF90EF90DF900895AA
S11308101092700266EF82E349DF0895682F70E05A
S11308206B50710962957295707F7627607F762789
S1130830636080E092E047DF08951092760267E0FB
S11308408AE234DF68E988E131DF65E98EE22EDF90
S113085063E080E092E037DF61E081E092E033DF43
S113086060E882E092E02FDF60E986E092E02BDF2F
S113087060E887E092E027DF60E188E092E023DF30
S113088061E280E292E01FDF60E88AE30FDF60E666
S11308908FE30CDF60E48EE309DFBADF84E1BEDFBF
S11308A064E086E303DF60E086E300DF1092780211
S11308B01092770289EF90E00197F1F700C00000F1
S11308C00895CF93DF9320917002211111C0EB01A1
S11308D0FC0120917802222319F0109278020995E4
S11308E080917702882321F010927702FE01099506
S11308F0DF91CF9108958091130190E00B970895B3
S113090064E089E3D3DE089560E089E3CFDE0895EF
S1130910AF92BF92CF92DF92EF92FF920F931F9309
S1130920CF93DF9381E08093700281E393DEB82E4E
S113093083FF4FC0809178028F5F80937802E0DF5D
S113094080E093E098DEA82E80917602EA2CF12CC8
S11309501E141F049CF4C7019C0124573E4F6901D7
S1130960CCE8D1E001E013E00C581140C8018C0F31
S11309709D1F81DE8993CC15DD05C1F7809113019C
S113098090E00B9718161906ACF4C4E1D1E0C12C21
S1130990D12C03E111E03FEFC31AD30AC601875FEC
S11309A09C4F69DE8993F801808190E00B97C8160B
S11309B0D9068CF3A0921301C7018F5F9C4F5BDEB5
S11309C080938801C7018E5F9C4F55DE8093890117
S11309D09BDFB0FE1CC0809177028F5F809377020B
S11309E084E238DE80936F02982F9F7321E009F030
S11309F020E09091120120FB90F9829586958695CE
S1130A008370880F997F892B877F809312011092BE
S1130A107002DF91CF911F910F91FF90EF90DF90C3
S1130A20CF90BF90AF90089584E191E00895FC01C8
S1130A30658308951FDB0895EF92FF920F931F9330
S1130A40CF93DF93EC01F42E122F069613DBF88676
S1130A5019870A87EB86DF91CF911F910F91FF9041
S1130A60EF900895029606DB08950E9603DB089531
S1130A7081E58CBD0895FC0180818EBD0DB407FE17
S1130A80FDCF8EB5FB0180830895CF92DF92EF9264
S1130A90FF920F931F93CF93DF93EC018B0185B1EA
S1130AA061E070E06B0102C0CC0CDD1C2A95E2F71A
S1130AB09C2D9095892385B9442389F04150E42ED7
S1130AC0F12C8FEFE81AF80AEC0EFD1EB801CE01E6
S1130AD0D2DF21960F5F1F4FEC16FD06B9F785B1E3
S1130AE0C82AC5B8DF91CF911F910F91FF90EF9065
S1130AF0DF90CF900895FB01DC0102C001900D92BC
S10F0B0041505040D8F70895F894FFCFFE
S1110B0C423105010002000300040005000050
S9030000FC
