S01500004E6F6465436F6D6D2D352D31312E737265630C
S113000013C07EC021C020C01FC01EC01DC01CC0A4
S11300101BC01AC019C018C017C016C015C014C020
S113002013C012C011C010C011241FBECFEFD2E004
S1130030DEBFCDBF22E0A0E0B1E001C01D92A43537
S1130040B207E1F79CD072C2DBCF08955E9A8FE4C9
S113005093EC0197F1F700C000005E988FE493ECF5
S11300600197F1F700C000000895579A569A559ADF
S113007085B18C6E85B984B18C6E84B9249800D214
S113008085D00CD18EEF9AECE0D081E090E0E7D0FF
S11300907894E89AE9E6F0E08081826080838AE2DD
S11300A092E090934D0280934C025E9A8FE493EC1D
S11300B00197F1F700C000005E988FE493EC01977C
S11300C0F1F700C000005D9A8FE493EC0197F1F71B
S11300D000C000005D988FE493EC0197F1F700C035
S11300E000005F9A8FE493EC0197F1F700C00000E1
S11300F05F988FE493EC0197F1F700C00000089536
S11301001F920F920FB60F9211242F933F934F9388
S11301105F936F937F938F939F93AF93BF93EF936B
S1130120FF935D9A8FE493EC0197F1F700C0000010
S11301305D988FE493EC0197F1F700C0000014D1AF
S11301405F9A8FE493EC0197F1F700C000005F9889
S11301508FE493EC0197F1F700C00000FF91EF9159
S1130160BF91AF919F918F917F916F915F914F91CB
S11301703F912F910F900FBE0F901F90189575DF30
S113018065E270E086E290E0CDD0FACF599887EA34
S113019091E60197F1F700C00000599A83E294EFC9
S11301A00197F1F700C000000895CF93DF93C0E0FA
S11301B0D1E0880F8E778883198226E042E0BE0161
S11301C0CE0171D18981DF91CF910895CF93DF93CF
S11301D0C0E0D1E09C013695279536952795369554
S11301E02795206828838295880F807E89831A82C8
S11301F026E043E0BE01CE0156D18A81DF91CF9142
S11302000895E0E0F1E0880F8E7781608083618358
S113021026E042E0BF01CF0146D10895E0E0F1E0DD
S11302209C01369527953695279536952795206810
S113023020838295880F807E80618183628326E09B
S113024043E0BF01CF012FD10895CF93C82F692F69
S113025082E0D7DF6C2F81E0D4DFCF910895CF9374
S1130260C82F692F84E0CDDF6C2F83E0CADFCF91E4
S1130270089510924F0266EF82E3C3DF0895682F5A
S113028070E06B50710962957295707F7627607F7C
S11302907627636080E092E0C1DF089510925102F6
S11302A067E08AE2AEDF68E988E1ABDF65E98EE208
S11302B0A8DF63E080E092E0B1DF61E081E092E0FA
S11302C0ADDF60E882E092E0A9DF60E986E092E0D9
S11302D0A5DF60E887E092E0A1DF60E188E092E0DA
S11302E09DDF61E280E292E099DF60E88AE389DFE2
S11302F060E68FE386DF60E48EE383DFBADF84E1C8
S1130300BEDF64E086E37DDF60E086E37ADF10929F
S113031053021092520289EF90E00197F1F700C066
S113032000000895CF93DF9320914F02211111C053
S1130330EB01FC0120915302222319F01092530285
S1130340099580915202882321F010925202FE01F5
S11303500995DF91CF91089564E089E352DF089510
S113036060E089E34EDF0895AF92BF92CF92DF92AF
S1130370EF92FF920F931F93CF93DF9381E08093CB
S11303804F0281E312DFB82E83FF4FC080915302E6
S11303908F5F80935302E0DF80E093E017DFA82EA5
S11303A080915102EA2CF12C1E141F049CF4C70105
S11303B09C0125583E4F6901CBE7D1E001E013E0F1
S11303C00B571140C8018C0F9D1F00DF8993CC157A
S11303D0DD05C1F78091040190E00B97181619060A
S11303E0ACF4C5E0D1E0C12CD12C04E011E03FEF26
S11303F0C31AD30AC601875F9C4FE8DE8993F801CC
S1130400808190E00B97C816D9068CF3A092040162
S1130410C7018F5F9C4FDADE80937901C7018E5F3D
S11304209C4FD4DE80937A019BDFB0FE1CC0809188
S113043052028F5F8093520284E2B7DE80934E02B1
S1130440982F9F7321E009F020E09091030120FB95
S113045090F98295869586958370880F997F892B6C
S1130460877F8093030110924F02DF91CF911F91F8
S11304700F91FF90EF90DF90CF90BF90AF900895D1
S113048081E58CBD0895E7EAF1E63197F1F700C004
S11304900000FC0180818EBD0DB407FEFDCF8EB53A
S11304A0FB0180830895CF92DF92EF92FF920F9326
S11304B01F93CF93DF93EC018B013FE38DE093E037
S11304C0315080409040E1F700C0000085B161E008
S11304D070E06B0102C0CC0CDD1C2A95E2F79C2D68
S11304E09095892385B94423A9F04150E42EF12C39
S11304F03FEFE31AF30AEC0EFD1E5F9A5F98B80112
S1130500CE01C1DF5F9A5F9821960F5F1F4FEC16F3
S1130510FD0699F785B1C82AC5B8DF91CF911F911F
S11305200F91FF90EF90DF90CF900895F894FFCF54
S9030000FC
