S01500004E6F6465436F6D6D2D352D31312E737265630C
S113000013C087C021C020C01FC01EC01DC01CC09B
S11300101BC01AC019C018C017C016C015C014C020
S113002013C012C011C010C011241FBECFEFD2E004
S1130030DEBFCDBF22E0A0E0B1E001C01D92A53536
S1130040B207E1F793D067C2DBCFFC01208130E037
S1130050322F22278181A901482BCA0108950895CE
S1130060CF93DF93809100018860809300016BD16E
S1130070EC0102D2AE01BC018BEF91E043D28DEFD3
S113008091E0E3DF019771F45D9A8FE493EC0197BB
S1130090F1F700C000005D988FE493EC0197F1F74D
S11300A000C0000080910001877F80930001DF91F0
S11300B0CF910895559A569A579A85B18C6E85B901
S11300C084B18C6E84B92498DAD157D0DED08EEF07
S11300D09AECB2D081E090E0B9D07894E89AE9E65D
S11300E0F0E08081826080838BE292E090934E0204
S11300F080934D025F9A8FE493EC0197F1F700C06F
S113010000005F988FE493EC0197F1F700C00000C2
S113011008951F920F920FB60F9211242F933F93BD
S11301204F935F936F937F938F939F93AF93BF93FB
S1130130EF93FF938091000180618093000110D1BF
S1130140809100018F7E80930001FF91EF91BF9118
S1130150AF919F918F917F916F915F914F913F915B
S11301602F910F900FBE0F901F901895A3DF6FE291
S113017070E080E390E0CDD0FACF599887EA91E619
S11301800197F1F700C00000599A83E294EF0197B8
S1130190F1F700C000000895CF93DF93C1E0D1E0F0
S11301A0880F8E778883198226E042E0BE01CE0153
S11301B073D18981DF91CF910895CF93DF93C1E00B
S11301C0D1E09C0136952795369527953695279548
S11301D0206828838295880F807E89831A8226E08E
S11301E043E0BE01CE0158D18A81DF91CF910895B9
S11301F0E1E0F1E0880F8E7781608083618326E0FF
S113020042E0BF01CF0148D10895E1E0F1E09C0153
S1130210369527953695279536952795206820831A
S11302208295880F807E80618183628326E043E02B
S1130230BF01CF0131D10895CF93C82F692F82E038
S1130240D7DF6C2F81E0D4DFCF910895CF93C82FEF
S1130250692F84E0CDDF6C2F83E0CADFCF9108954E
S11302601092500266EF82E3C3DF0895682F70E0B6
S11302706B50710962957295707F7627607F76273F
S1130280636080E092E0C1DF08951092520267E05B
S11302908AE2AEDF68E988E1ABDF65E98EE2A8DFD8
S11302A063E080E092E0B1DF61E081E092E0ADDF05
S11302B060E882E092E0A9DF60E986E092E0A5DFF1
S11302C060E887E092E0A1DF60E188E092E09DDFF2
S11302D061E280E292E099DF60E88AE389DF60E628
S11302E08FE386DF60E48EE383DFBADF84E1BEDF81
S11302F064E086E37DDF60E086E37ADF10925402F7
S11303001092530289EF90E00197F1F700C00000CA
S11303100895CF93DF9320915002211111C0EB0176
S1130320FC0120915402222319F0109254020995E1
S113033080915302882321F010925302FE01099503
S1130340DF91CF9108958091050190E00B97089576
S113035064E089E34DDF089560E089E349DF0895AF
S1130360AF92BF92CF92DF92EF92FF920F931F93BF
S1130370CF93DF9381E08093500281E30DDFB82EA9
S113038083FF4FC0809154028F5F80935402E0DF5B
S113039080E093E012DFA82E80915202EA2CF12C27
S11303A01E141F049CF4C7019C0124583E4F69018C
S11303B0CCE7D1E001E013E00C571140C8018C0FE9
S11303C09D1FFBDE8993CC15DD05C1F780910501E6
S11303D090E00B9718161906ACF4C6E0D1E0C12CD6
S11303E0D12C05E011E03FEFC31AD30AC601875FA1
S11303F09C4FE3DE8993F801808190E00B97C81647
S1130400D9068CF3A0920501C7018F5F9C4FD5DEFE
S113041080937A01C7018E5F9C4FCFDE80937B016E
S11304209BDFB0FE1CC0809153028F5F8093530208
S113043084E2B2DE80934F02982F9F7321E009F08B
S113044020E09091040120FB90F982958695869591
S11304508370880F997F892B877F80930401109282
S11304605002DF91CF911F910F91FF90EF90DF9099
S1130470CF90BF90AF90089586E091E0089581E514
S11304808CBD0895FC0180818EBD0DB407FEFDCFA7
S11304908EB5FB0180830895CF92DF92EF92FF9295
S11304A00F931F93CF93DF93EC018B0185B161E030
S11304B070E06B0102C0CC0CDD1C2A95E2F79C2D88
S11304C09095892385B9442389F04150E42EF12C79
S11304D08FEFE81AF80AEC0EFD1EB801CE01D2DF48
S11304E021960F5F1F4FEC16FD06B9F785B1C82A98
S11304F0C5B8DF91CF911F910F91FF90EF90DF90DE
S1130500CF900895FB01DC0102C001900D9241508F
S10D05105040D8F70895F894FFCF87
S9030000FC
