S01300003357617952656C61792D312E7372656352
S113000013C085C02CC02BC02AC029C028C027C05B
S113001026C025C024C023C022C021C020C01FC0C8
S11300201EC01DC01CC01BC011241FBECFEFD2E0D8
S1130030DEBFCDBF11E0A0E0B1E0EAE8F8E002C025
S113004005900D92A230B107D9F722E0A2E0B1E009
S113005001C01D92AE35B207E1F7A1D114C4D0CFCF
S1130060FC01208130E0322F22278181A901482B15
S1130070CA010895FC017083618308950895559A17
S1130080569A579A85B18C6E85B984B18C6E84B9B1
S11300902498ADD38BD18CD28EEF9AECF5D181E03C
S11300A090E0FCD17894E89AE9E6F0E080818260FF
S11300B0808382E392E090935602809355028AE013
S11300C092E09093540280935302109252028AE079
S11300D080935A0288E2EAE2F2E0DF01982F1D924F
S11300E09A95E9F7E2E0F2E0DF011D928A95E9F7DB
S11300F05F9A8FE493EC0197F1F700C000005F98DA
S1130100AFE4B3EC1197F1F700C0000008951F921B
S11301100F920FB60F9211242F933F934F935F9337
S11301206F937F938F939F93AF93BF93EF93FF93BB
S113013080910201806180930201A5D28091020125
S11301408F7E80930201FF91EF91BF91AF919F91B8
S11301508F917F916F915F914F913F912F910F906C
S11301600FBE0F901F9018950F931F93CF93DF939B
S11301708C01EB016091000170910101CE0112D359
S11301806091000170910101CE010ED368E2CE01AD
S11301900ED3B801CE010ED361E0CE0121D348E2E3
S11301A0BE01C80194D1DF91CF911F910F910895A1
S11301B0EF92FF920F93CF93DF937C01EB015E9A52
S11301C08FE493EC0197F1F700C000005E988FE490
S11301D093EC0197F1F700C0000004E023E042E053
S11301E061E474E4CE01E9D2BE01C701BDDFDF9151
S11301F0CF910F91FF90EF900895EF92FF920F939C
S1130200CF93DF937C01EB0104E023E042E06EEC4A
S113021070E0CE01D2D2BE01C701A6DFDF91CF913B
S11302200F91FF90EF9008950F931F93CF93DF9357
S11302308C015D9A8FE493EC0197F1F700C0000004
S11302405D98EFE4F3EC3197F1F700C00000E801AA
S11302502A96CE0105DF82359544F1F4C80106964D
S1130260FFDE82349143C1F45E9A8FE493EC0197EC
S1130270F1F700C000005E98EFE4F3EC3197F1F77A
S113028000C000006AE272E082E090E091DF88E260
S1130290F80111928A95E9F7CE01E2DE8E3C9105D0
S11302A029F55D9A8FE493EC0197F1F700C0000003
S11302B05D98EFE4F3EC3197F1F700C000005E9A2B
S11302C08FE493EC0197F1F700C000005E98EFE42F
S11302D0F3EC3197F1F700C00000B80182E491E338
S11302E08CDF88E2F80111928A95E9F7CE01B8DE35
S11302F081349444F1F45E9A8FE493EC0197F1F71E
S113030000C000005E98EFE4F3EC3197F1F700C011
S1130310000065E575E58AE292E066D2C8010696BA
S11303209FDE6AE272E069DF88E2F80111928A9541
S1130330E9F7DF91CF911F910F910895CF93DF9348
S11303408091020188608093020190D1EC0127D250
S1130350AE01BC0182E092E08DD284E092E080DEC6
S1130360019791F45F9A8FE493EC0197F1F700C041
S113037000005F988FE493EC0197F1F700C0000050
S113038082E092E051DF03C084E092E069DE809174
S11303900201877F80930201DF91CF9108956FDE80
S11303A06EE370E08EE991E047D1FACF599887EA7D
S11303B091E60197F1F700C00000599A83E294EFA7
S11303C00197F1F700C000000895CF93DF93C3E0D5
S11303D0D1E0880F8E778883198226E042E0BE013F
S11303E0CE0112D28981DF91CF910895CF93DF930B
S11303F0C3E0D1E09C01369527953695279536952F
S11304002795206828838295880F807E89831A82A5
S113041026E043E0BE01CE01F7D18A81DF91CF917E
S11304200895E3E0F1E0880F8E7781608083618333
S113043026E042E0BF01CF01E7D10895E3E0F1E017
S11304409C013695279536952795369527952068EE
S113045020838295880F807E80618183628326E079
S113046043E0BF01CF01D0D10895CF9382E0ADDF47
S1130470C82F81E0AADF2C2F30E0322F2227A901D8
S1130480482BCA01CF910895CF93C82F692F82E0DA
S1130490C8DF6C2F81E0C5DFCF910895CF93C82FBB
S11304A0692F84E0BEDF6C2F83E0BBDFCF9108951A
S11304B0CF9384E08ADFC82F83E087DF2C2F30E0DE
S11304C0322F2227A901482BCA01CF910895DF9228
S11304D0EF92FF920F931F93CF93DF93D82FC92FDF
S11304E07B01D42E69E080E090E0A8DF60917E017A
S11304F0675F6D0D81E090E0A1DF61E682E090E04E
S11305009DDF68E883E090E099DF61E084E090E0BB
S113051095DFABDF192F682F85E090E08FDF612F27
S113052086E090E08BDF6D2F87E090E087DF6C2F13
S113053088E090E083DFBCDFC92F682F89E090E07A
S11305407DDF6C2F8AE090E079DFC0917E01D0914D
S11305507F012B96DD2061F08701ED0CF11CF80181
S113056061918F01CE016ADF21960E151F05B9F73F
S113057065E08BE156DFDF91CF911F910F91FF90E2
S1130580EF90DF9008951092580266EF82E349DFFE
S11305900895682F70E06B50710962957295707FB1
S11305A07627607F7627636080E092E047DF0895D6
S11305B010925B0267E08AE234DF68E988E131DFA8
S11305C065E98EE22EDF63E080E092E037DF61E0F0
S11305D081E092E033DF60E882E092E02FDF60E9BF
S11305E086E092E02BDF60E887E092E027DF60E1BD
S11305F088E092E023DF61E280E292E01FDF60E8BE
S11306008AE30FDF60E68FE30CDF60E48EE309DF4B
S1130610BADF84E1BEDF64E086E303DF60E086E303
S113062000DF10925D0210925C0289EF90E0019766
S1130630F1F700C000000895CF93DF932091580292
S1130640211111C0EB01FC0120915D02222319F05C
S113065010925D02099580915C02882321F010922A
S11306605C02FE010995DF91CF9108958091070105
S113067090E00B97089564E089E3D3DE089560E089
S113068089E3CFDE0895AF92BF92CF92DF92EF92CB
S1130690FF920F931F93CF93DF9381E080935802CF
S11306A081E393DEB82E83FF4FC080915D028F5F9C
S11306B080935D02E0DF80E093E098DEA82E8091D5
S11306C05B02EA2CF12C1E141F049CF4C7019C014C
S11306D020583E4F6901C0E8D1E001E013E0005822
S11306E01140C8018C0F9D1F81DE8993CC15DD0557
S11306F0C1F78091070190E00B9718161906ACF426
S1130700C8E0D1E0C12CD12C07E011E03FEFC31ABF
S1130710D30AC601875F9C4F69DE8993F801808103
S113072090E00B97C816D9068CF3A0920701C70175
S11307308F5F9C4F5BDE80937C01C7018E5F9C4F73
S113074055DE80937D019BDFB0FE1CC080915C026E
S11307508F5F80935C0284E238DE80935702982F87
S11307609F7321E009F020E09091060120FB90F9AD
S11307708295869586958370880F997F892B877FCC
S11307808093060110925802DF91CF911F910F912F
S1130790FF90EF90DF90CF90BF90AF90089588E0E6
S11307A091E0089567DC0895049664DC0895FC01E3
S11307B06187089502965EDC0895FF920F931F935C
S11307C0CF93DF93EC01F42E122F0A9653DCFD86AF
S11307D01E870F87DF91CF911F910F91FF9008958E
S11307E070E0069647DC0895409644DC089581E560
S11307F08CBD0895FC0180818EBD0DB407FEFDCF34
S11308008EB5FB0180830895CF92DF92EF92FF9221
S11308100F931F93CF93DF93EC018B0185B161E0BC
S113082070E06B0102C0CC0CDD1C2A95E2F79C2D14
S11308309095892385B9442389F04150E42EF12C05
S11308408FEFE81AF80AEC0EFD1EB801CE01D2DFD4
S113085021960F5F1F4FEC16FD06B9F785B1C82A24
S1130860C5B8DF91CF911F910F91FF90EF90DF906A
S1130870CF900895FB01DC0102C001900D9241501C
S10D08805040D8F70895F894FFCF14
S105088AFECAA0
S9030000FC
