S01300003357617952656C61792D312E7372656352
S113000013C066C021C020C01FC01EC01DC01CC0BC
S11300101BC01AC019C018C017C016C015C014C020
S113002013C012C011C010C011241FBECFEFD2E004
S1130030DEBFCDBF22E0A0E0B1E001C01D92AD352E
S1130040B207E1F7F3D054C3DBCFFC01208130E0E9
S1130050322F22278181A901482BCA010895FC016E
S11300607083618308950895559A569A579A85B175
S11300708C6A85B984B18C6A84B92498DAD2DDD0CB
S1130080DED18EEF9AEC47D181E090E04ED17894A6
S1130090E89AE9E6F0E080818260808381E392E07F
S11300A09093550280935402109253028AE08093F5
S11300B059025E9A8FE493EC0197F1F700C00000B7
S11300C05E988FE493EC0197F1F700C00000089567
S11300D01F920F920FB60F9211242F933F934F93B9
S11300E05F936F937F938F939F93AF93BF93EF939C
S11300F0FF9310D2FF91EF91BF91AF919F918F9198
S11301007F916F915F914F913F912F910F900FBE0F
S11301100F901F901895CF93DF93EC0180915402B8
S11301209091550262E575E4029699DF409132029E
S113013069E272E0CE0112D1DF91CF9108950F935D
S11301401F93CF93DF938C01EC012296CE017DDFC8
S113015083349544B9F4C801049677DF892B91F46C
S11301605D9A8FE493EC0197F1F700C000005D986D
S11301708FE493EC0197F1F700C00000C8010696E4
S113018064DFC9DFCE0161DF8235954469F4C801BB
S113019004965BDF892B41F48091540290915502BF
S11301A06CEA70E004965BDFCE014FDF8D3E910573
S11301B079F48091530281110BC08DEE8093590222
S11301C0C801069642DF8093000181E080935302C8
S11301D0CE013BDFCE0139DFCE0137DFDF91CF9196
S11301E01F910F910895CF93DF938091010188604F
S11301F08093010182D1EC0119D2AE01BC0181E0EE
S113020092E06DD283E092E020DF019721F481E057
S113021092E095DF03C083E092E017DF8091010153
S1130220877F80930101DF91CF9108951DDF63E300
S113023070E083EF90E047D1FACF599887EA91E6CE
S11302400197F1F700C00000599A83E294EF0197F7
S1130250F1F700C000000895CF93DF93C2E0D1E02E
S1130260880F8E778883198226E042E0BE01CE0192
S1130270F3D18981DF91CF910895CF93DF93C2E0C9
S1130280D1E09C0136952795369527953695279587
S1130290206828838295880F807E89831A8226E0CD
S11302A043E0BE01CE01D8D18A81DF91CF91089578
S11302B0E2E0F1E0880F8E7781608083618326E03D
S11302C042E0BF01CF01C8D10895E2E0F1E09C0112
S11302D0369527953695279536952795206820835A
S11302E08295880F807E80618183628326E043E06B
S11302F0BF01CF01B1D10895CF9382E0ADDFC82F04
S113030081E0AADF2C2F30E0322F2227A901482BCD
S1130310CA01CF910895CF93C82F692F82E0C8DF17
S11303206C2F81E0C5DFCF910895CF93C82F692F3B
S113033084E0BEDF6C2F83E0BBDFCF910895CF93C1
S113034084E08ADFC82F83E087DF2C2F30E0322F50
S11303502227A901482BCA01CF910895DF92EF9279
S1130360FF920F931F93CF93DF93D82FC92F7B0155
S1130370D42E69E080E090E0A8DF60917D01675FA2
S11303806D0D81E090E0A1DF61E682E090E09DDF09
S113039068E883E090E099DF61E084E090E095DF35
S11303A0ABDF192F682F85E090E08FDF612F86E0A7
S11303B090E08BDF6D2F87E090E087DF6C2F88E083
S11303C090E083DFBCDFC92F682F89E090E07DDFF8
S11303D06C2F8AE090E079DFC0917D01D0917E019D
S11303E02B96DD2061F08701ED0CF11CF801619181
S11303F08F01CE016ADF21960E151F05B9F765E05E
S11304008BE156DFDF91CF911F910F91FF90EF9019
S1130410DF9008951092570266EF82E349DF089552
S1130420682F70E06B50710962957295707F762722
S1130430607F7627636080E092E047DF0895109242
S11304405A0267E08AE234DF68E988E131DF65E96E
S11304508EE22EDF63E080E092E037DF61E081E04E
S113046092E033DF60E882E092E02FDF60E986E02B
S113047092E02BDF60E887E092E027DF60E188E02C
S113048092E023DF61E280E292E01FDF60E88AE32A
S11304900FDF60E68FE30CDF60E48EE309DFBADF91
S11304A084E1BEDF64E086E303DF60E086E300DF2F
S11304B010925C0210925B0289EF90E00197F1F7D1
S11304C000C000000895CF93DF93209157022111BB
S11304D011C0EB01FC0120915C02222319F010925F
S11304E05C02099580915B02882321F010925B02E3
S11304F0FE010995DF91CF9108958091060190E066
S11305000B97089564E089E3D3DE089560E089E3FE
S1130510CFDE0895AF92BF92CF92DF92EF92FF9217
S11305200F931F93CF93DF9381E08093570281E36E
S113053093DEB82E83FF4FC080915C028F5F80935F
S11305405C02E0DF80E093E098DEA82E80915A02FE
S1130550EA2CF12C1E141F049CF4C7019C012158A1
S11305603E4F6901CFE7D1E001E013E00F5711409E
S1130570C8018C0F9D1F81DE8993CC15DD05C1F761
S11305808091060190E00B9718161906ACF4C7E0A9
S1130590D1E0C12CD12C06E011E03FEFC31AD30AFD
S11305A0C601875F9C4F69DE8993F801808190E0E2
S11305B00B97C816D9068CF3A0920601C7018F5F6A
S11305C09C4F5BDE80937B01C7018E5F9C4F55DEA1
S11305D080937C019BDFB0FE1CC080915B028F5F27
S11305E080935B0284E238DE80935602982F9F73D7
S11305F021E009F020E09091050120FB90F982951B
S1130600869586958370880F997F892B877F809341
S1130610050110925702DF91CF911F910F91FF9026
S1130620EF90DF90CF90BF90AF90089587E091E076
S1130630089581E58CBD0895E7EAF1E63197F1F775
S113064000C00000FC0180818EBD0DB407FEFDCF0B
S11306508EB5FB0180830895CF92DF92EF92FF92D3
S11306600F931F93CF93DF93EC018B013FE38DE056
S113067093E0315080409040E1F700C0000085B124
S113068061E070E06B0102C0CC0CDD1C2A95E2F73E
S11306909C2D9095892385B94423A9F04150E42EDB
S11306A0F12C3FEFE31AF30AEC0EFD1E5F9A5F98FC
S11306B0B801CE01C1DF5F9A5F9821960F5F1F4F8B
S11306C0EC16FD0699F785B1C82AC5B8DF91CF911C
S11306D01F910F91FF90EF90DF90CF900895FB0151
S11306E0DC0102C001900D9241505040D8F70895AA
S10706F0F894FFCFA8
S9030000FC
