S01300003357617952656C61792D312E7372656352
S113000013C085C02CC02BC02AC029C028C027C05B
S113001026C025C024C023C022C021C020C01FC0C8
S11300201EC01DC01CC01BC011241FBECFEFD2E0D8
S1130030DEBFCDBF11E0A0E0B1E0E4E9F8E002C02A
S113004005900D92A230B107D9F722E0A2E0B1E009
S113005001C01D92AE35B207E1F79DD119C4D0CFCE
S1130060FC01208130E0322F22278181A901482B15
S1130070CA010895FC017083618308950895559A17
S1130080569A579A85B18C6E85B984B18C6E84B9B1
S11300902498B2D387D191D28EEF9AECF1D181E03A
S11300A090E0F8D17894E89AE9E6F0E08081826003
S11300B0808382E392E090935602809355028AE013
S11300C092E09093540280935302109252028AE079
S11300D080935A0288E2EAE2F2E0DF01982F1D924F
S11300E09A95E9F7E2E0F2E0DF011D928A95E9F7DB
S11300F05F9A8FE493EC0197F1F700C000005F98DA
S1130100AFE4B3EC1197F1F700C0000008951F921B
S11301100F920FB60F9211242F933F934F935F9337
S11301206F937F938F939F93AF93BF93EF93FF93BB
S113013080910201806180930201AAD28091020120
S11301408F7E80930201FF91EF91BF91AF919F91B8
S11301508F917F916F915F914F913F912F910F906C
S11301600FBE0F901F9018950F931F93CF93DF939B
S11301708C01EB016091000170910101CE0117D354
S11301806091000170910101CE0113D368E2CE01A8
S113019013D3B801CE0113D361E0CE0126D348E2D4
S11301A0BE01C80190D1DF91CF911F910F910895A5
S11301B0EF92FF920F93CF93DF937C01EB015E9A52
S11301C08FE493EC0197F1F700C000005E988FE490
S11301D093EC0197F1F700C0000004E023E042E053
S11301E061E474E4CE01EED2BE01C701BDDFDF914C
S11301F0CF910F91FF90EF900895EF92FF920F939C
S1130200CF93DF937C01EB0104E023E042E06EEC4A
S113021070E0CE01D7D2BE01C701A6DFDF91CF9136
S11302200F91FF90EF9008950F931F93CF93DF9357
S11302308C015D9A8FE493EC0197F1F700C0000004
S11302405D98EFE4F3EC3197F1F700C00000E801AA
S11302502A96CE0105DF82359544F1F4C80106964D
S1130260FFDE82349143C1F45E9A8FE493EC0197EC
S1130270F1F700C000005E98EFE4F3EC3197F1F77A
S113028000C000006AE272E082E090E091DF88E260
S1130290F80111928A95E9F7CE01E2DE8E3C9105D0
S11302A029F55D9A8FE493EC0197F1F700C0000003
S11302B05D98EFE4F3EC3197F1F700C000005E9A2B
S11302C08FE493EC0197F1F700C000005E98EFE42F
S11302D0F3EC3197F1F700C00000B80182E491E338
S11302E08CDF88E2F80111928A95E9F7CE01B8DE35
S11302F081349444F1F45E9A8FE493EC0197F1F71E
S113030000C000005E98EFE4F3EC3197F1F700C011
S1130310000065E575E58AE292E06BD2C8010696B5
S11303209FDE6AE272E069DF88E2F80111928A9541
S1130330E9F7DF91CF911F910F910895CF93DF9348
S11303408091020188608093020195D1EC012CD246
S1130350AE01BC0182E092E092D284E092E080DEC1
S1130360019789F45F9A8FE493EC0197F1F700C049
S113037000005F988FE493EC0197F1F700C0000050
S113038082E092E051DF80910201877F8093020135
S1130390DF91CF91089573DE6EE370E08EE991E012
S11303A050D1FACF599887EA91E60197F1F700C046
S11303B00000599A83E294EF0197F1F700C000001E
S11303C00895CF93DF93C3E0D1E0880F8E778883BD
S11303D0198226E042E0BE01CE011BD28981DF9161
S11303E0CF910895CF93DF93C3E0D1E09C0136957C
S11303F027953695279536952795206828838295E5
S1130400880F807E89831A8226E043E0BE01CE01F4
S113041000D28A81DF91CF910895E3E0F1E0880F63
S11304208E7781608083618326E042E0BF01CF0143
S1130430F0D10895E3E0F1E09C01369527953695D7
S1130440279536952795206820838295880F807E8E
S113045080618183628326E043E0BF01CF01D9D16B
S11304600895CF9382E0ADDFC82F81E0AADF2C2F5F
S113047030E0322F2227A901482BCA01CF910895D9
S1130480CF93C82F692F82E0C8DF6C2F81E0C5DFCE
S1130490CF910895CF93C82F692F84E0BEDF6C2FCE
S11304A083E0BBDFCF910895CF9384E08ADFC82F28
S11304B083E087DF2C2F30E0322F2227A901482B3D
S11304C0CA01CF910895BF92CF92DF92EF92FF922B
S11304D00F931F93CF93DF93D82FC92F7B01B42E93
S11304E069E080E090E0A6DF60917E01675F6B0DBC
S11304F081E090E09FDF61E682E090E09BDF68E8C6
S113050083E090E097DF61E084E090E093DFA9DF8F
S1130510192F682F85E090E08DDF612F86E090E051
S113052089DF6D2F87E090E085DF6C2F88E090E015
S113053081DFBADFC92F682F89E090E07BDF6C2F61
S11305408AE090E077DFC0907E01D0907F018BE05D
S1130550C80ED11CBB2061F08601E701EB0CF11C35
S11305606991C80167DF0F5F1F4FCE15DF05C1F723
S11305706B2DC6015FDF65E08BE14FDFDF91CF912B
S11305801F910F91FF90EF90DF90CF90BF9008954F
S11305901092580266EF82E340DF0895682F70E0FE
S11305A06B50710962957295707F7627607F76270C
S11305B0636080E092E03EDF089510925B0267E0A2
S11305C08AE22BDF68E988E128DF65E98EE225DF2E
S11305D063E080E092E02EDF61E081E092E02ADFD8
S11305E060E882E092E026DF60E986E092E022DFC4
S11305F060E887E092E01EDF60E188E092E01ADFC5
S113060061E280E292E016DF60E88AE306DF60E6FA
S11306108FE303DF60E48EE300DFBADF84E1BEDF53
S113062064E086E3FADE60E086E3F7DE10925D02C2
S113063010925C0289EF90E00197F1F700C000008E
S11306400895CF93DF9320915802211111C0EB013B
S1130650FC0120915D02222319F010925D0209959C
S113066080915C02882321F010925C02FE010995BE
S1130670DF91CF9108958091070190E00B97089541
S113068064E089E3CADE089560E089E3C6DE089584
S1130690AF92BF92CF92DF92EF92FF920F931F938C
S11306A0CF93DF9381E08093580281E38ADEB82EF2
S11306B083FF4FC080915D028F5F80935D02E0DF16
S11306C080E093E08FDEA82E80915B02EA2CF12C6F
S11306D01E141F049CF4C7019C0120583E4F69015D
S11306E0C0E8D1E001E013E000581140C8018C0FCC
S11306F09D1F78DE8993CC15DD05C1F78091070134
S113070090E00B9718161906ACF4C8E0D1E0C12CA0
S1130710D12C07E011E03FEFC31AD30AC601875F6B
S11307209C4F60DE8993F801808190E00B97C81696
S1130730D9068CF3A0920701C7018F5F9C4F52DE4C
S113074080937C01C7018E5F9C4F4CDE80937D01BA
S11307509BDFB0FE1CC080915C028F5F80935C02C3
S113076084E22FDE80935702982F9F7321E009F0D3
S113077020E09091060120FB90F98295869586955C
S11307808370880F997F892B877F8093060110924D
S11307905802DF91CF911F910F91FF90EF90DF905E
S11307A0CF90BF90AF90089588E091E0089562DC07
S11307B0089504965FDC0895FC016187089502960C
S11307C059DC0895FF920F931F93CF93DF93EC01AD
S11307D0F42E122F0A964EDCFD861E870F87DF91BA
S11307E0CF911F910F91FF90089570E0069642DC1F
S11307F0089540963FDC089581E58CBD0895FC0181
S113080080818EBD0DB407FEFDCF8EB5FB018083C4
S11308100895CF92DF92EF92FF920F931F93CF939D
S1130820DF93EC018B0185B161E070E06B0102C0E4
S1130830CC0CDD1C2A95E2F79C2D9095892385B973
S1130840442389F04150E42EF12C8FEFE81AF80A82
S1130850EC0EFD1EB801CE01D2DF21960F5F1F4FB3
S1130860EC16FD06B9F785B1C82AC5B8DF91CF915A
S11308701F910F91FF90EF90DF90CF900895FB01AF
S1130880DC0102C001900D9241505040D8F7089508
S1070890F894FFCF06
S1050894FECA96
S9030000FC
