S01000004144435F434F4D4D2E73726563C1
S113000013C022C021C020C01FC01EC01DC01CC000
S11300101BC01AC019C018C017C016C015C014C020
S113002013C012C011C010C011241FBECFEFD2E004
S1130030DEBFCDBF21E0A0E0B1E001C01D92A73832
S1130040B207E1F7D5D096C2DBCF1AD21DD20895FC
S11300501ED28823E9F05D9A8FE493EC0197F1F7BF
S113006000C000005D988FE493EC0197F1F700C0A5
S113007000005D9A8FE493EC0197F1F700C0000053
S11300805D988FE493EC0197F1F700C000000895A8
S11300905F9A8FE493EC0197F1F700C000005F983A
S11300A08FE493EC0197F1F700C000005F9A8FE4AE
S11300B093EC0197F1F700C000005F988FE493EC94
S11300C00197F1F700C000000895579A559A549A81
S11300D0509885B18C6A85B984B18C6A84B92498A6
S11300E05D9A8FE493EC0197F1F700C000005D98EE
S11300F08FE493EC0197F1F700C00000E9D15D9A19
S11301008FE493EC0197F1F700C000005D988FE451
S113011093EC0197F1F700C000006DD05F9A8FE473
S113012093EC0197F1F700C000005F988FE493EC23
S11301300197F1F700C0000045D15F9A8FE493EC7A
S11301400197F1F700C000005F988FE493EC0197EA
S1130150F1F700C000008EEF9AECA0D086E290E0A8
S1130160A7D07894E89AE9E6F0E080818260808301
S1130170089589B1809581700895FBDF811132C0A3
S11301805D9A8FE493EC0197F1F700C000005D984D
S11301908FE493EC0197F1F700C0000080E07BD17D
S11301A090937E0180937D0168E270E085E290E0A7
S11301B04DD142E06DE771E082E390E092D05D9A28
S11301C08FE493EC0197F1F700C000005D988FE491
S11301D093EC0197F1F700C0000068E270E085E25B
S11301E090E034D168E270E085E290E02FD1089588
S11301F06CDFC3DFFECF599887EA91E60197F1F7E8
S113020000C00000599A83E294EF0197F1F700C00F
S113021000000895CF93DF93C0E0D1E0880F8E777C
S11302208883198222E042E0BE01CE0164D1898133
S1130230DF91CF910895E0E0F1E0880F8E7781603F
S11302408083618322E042E0BF01CF0154D108954D
S1130250E0E0F1E09C013695279536952795369593
S11302602795206820838295880F807E8061818312
S1130270628322E043E0BF01CF013DD10895CF93D3
S113028082E0C8DFC82F81E0C5DF2C2F30E0322F99
S11302902227A901482BCA01CF910895CF93C82FD3
S11302A0692F82E0C8DF6C2F81E0C5DFCF9108950C
S11302B0CF93C82F692F84E0BEDF6C2F83E0BBDFB0
S11302C0CF910895CF9384E0A5DFC82F83E0A2DF08
S11302D02C2F30E0322F2227A901482BCA01CF91BD
S11302E00895DF92EF92FF920F931F93CF93DF93C2
S11302F0D82FC92F7B01D42E69E080E090E0A8DFDD
S113030060917B01675F6D0D81E090E0A1DF61E6A4
S113031082E090E09DDF68E883E090E099DF61E0AF
S113032084E090E095DFABDF192F682F85E090E043
S11303308FDF612F86E090E08BDF6D2F87E090E008
S113034087DF6C2F88E090E083DFBCDFC92F682F44
S113035089E090E07DDF6C2F8AE090E079DFC09146
S11303607B01D0917C012B96DD2061F08701ED0C9F
S1130370F11CF80161918F01CE016ADF21960E15FF
S11303801F05B9F765E08BE156DFDF91CF911F912F
S11303900F91FF90EF90DF9008951092800166EF27
S11303A082E349DF0895682F70E06B50710962950C
S11303B07295707F7627607F7627636080E092E095
S11303C047DF08951092810167E08AE234DF68E92B
S11303D088E131DF65E98EE22EDF63E080E092E0C0
S11303E037DF61E081E092E033DF60E882E092E0B1
S11303F02FDF60E986E092E02BDF60E887E092E09F
S113040027DF60E188E092E023DF61E280E292E0AE
S11304101FDF60E88AE30FDF60E68FE30CDF60E450
S11304208EE309DFBADF84E1BEDF64E086E303DF45
S113043060E086E300DF109283011092820189EF6D
S113044090E00197F1F700C000000895CF93DF9387
S113045020918001211111C0EB01FC012091830145
S1130460222319F010928301099580918201882337
S113047021F010928201FE010995DF91CF91089538
S1130480809181018460089585E091E008958091D0
S1130490030181700895CF93DF93C4E8D1E0982FCE
S11304A096959695966098838295880F880F807CA0
S11304B0898327E043E0BE01CE011DD089818F707E
S11304C090E0982F88272A81822BDF91CF9108957D
S11304D081E58CBD0895E7EAF1E63197F1F700C0B4
S11304E00000FC0180818EBD0DB407FEFDCF8EB5EA
S11304F0FB0180830895CF92DF92EF92FF920F93D6
S11305001F93CF93DF93EC018B013FE38DE093E0E6
S1130510315080409040E1F700C0000085B161E0B7
S113052070E06B0102C0CC0CDD1C2A95E2F79C2D17
S11305309095892385B9442389F04150E42EF12C08
S11305403FEFE31AF30AEC0EFD1EB801CE01C3DF40
S113055021960F5F1F4FEC16FD06B9F785B1C82A27
S1130560C5B8DF91CF911F910F91FF90EF90DF906D
S10B0570CF900895F894FFCF29
S9030000FC
