S01300004144435F524543494556452E73726563E7
S113000013C022C021C020C01FC01EC01DC01CC000
S11300101BC01AC019C018C017C016C015C014C020
S113002013C012C011C010C011241FBECFEFD2E004
S1130030DEBFCDBF21E0A0E0B1E001C01D92A23837
S1130040B207E1F772D0A1C1DBCF3ED15C9A40D1B7
S1130050FC012081243608F05D9AEFE4F3EC31973B
S1130060F1F700C000005D98EFE4F3EC3197F1F78D
S113007000C00000FC018081843608F45F9A8FE49C
S113008093EC0197F1F700C000005F98EFE4F3EC04
S11300903197F1F700C0000008951DD10895579AD3
S11300A0559A569A549A85B18C6A85B984B18C6AEA
S11300B084B9249814D14ED05E9A8FE493EC0197BE
S11300C0F1F700C000005E988FE493EC0197F1F71C
S11300D000C000009BD05E9A8FE493EC0197F1F787
S11300E000C000005E988FE493EC0197F1F700C024
S11300F000008EEF9AEC61D082E390E068D07894AF
S1130100E89AE9E6F0E08081826080835E9A8FE479
S113011093EC0197F1F700C000005E988FE493EC34
S11301200197F1F700C000000895B9DF5C9A8FE4ED
S113013093EC0197F1F700C000005C988FE493EC16
S11301400197F1F700C000006DE470E085E290E0F3
S1130150A1D0FACF599887EA91E60197F1F700C048
S11301600000599A83E294EF0197F1F700C0000070
S11301700895E0E0F1E0880F8E77816080836183E9
S113018027E042E0BF01CF01BDD00895E0E0F1E0F7
S11301909C013695279536952795369527952068A1
S11301A020838295880F807E80618183628327E02B
S11301B043E0BF01CF01A6D00895CF93C82F692F84
S11301C082E0D7DF6C2F81E0D4DFCF910895CF9305
S11301D0C82F692F84E0CDDF6C2F83E0CADFCF9175
S11301E0089510927E0166EF82E3C3DF0895682FBD
S11301F070E06B50710962957295707F7627607F0D
S11302007627636080E092E0C1DF089510927F0159
S113021067E08AE2AEDF68E988E1ABDF65E98EE298
S1130220A8DF63E080E092E0B1DF61E081E092E08A
S1130230ADDF60E882E092E0A9DF60E986E092E069
S1130240A5DF60E887E092E0A1DF60E188E092E06A
S11302509DDF61E280E292E099DF60E88AE389DF72
S113026060E68FE386DF60E48EE383DFBADF84E158
S1130270BEDF64E086E37DDF60E086E37ADF109230
S113028081011092800189EF90E00197F1F700C09D
S113029000000895CF93DF9320917E01211111C0B6
S11302A0EB01FC0120918101222319F010928101BC
S11302B0099580918001882321F010928001FE012C
S11302C00995DF91CF91089580917F01846008950D
S11302D085E091E00895809103018170089581E59E
S11302E08CBD0895E7EAF1E63197F1F700C000000C
S11302F0FC0180818EBD0DB407FEFDCF8EB5FB01E0
S113030080830895CF92DF92EF92FF920F931F9311
S1130310CF93DF93EC018B013FE38DE093E0315009
S113032080409040E1F700C0000085B161E070E0DA
S11303306B0102C0CC0CDD1C2A95E2F79C2D909534
S1130340892385B94423A9F04150E42EF12C3FEFD1
S1130350E31AF30AEC0EFD1E5F9A5F98B801CE0112
S1130360C1DF5F9A5F9821960F5F1F4FEC16FD0661
S113037099F785B1C82AC5B8DF91CF911F910F9124
S1110380FF90EF90DF90CF900895F894FFCF98
S9030000FC
