S02000004D5246636F6D6D4578706572696D656E74526563696576652E737265638F
S113000013C0BCC021C020C01FC01EC01DC01CC066
S11300101BC01AC019C018C017C016C015C014C020
S113002013C012C011C010C011241FBECFEFD2E004
S1130030DEBFCDBF22E0A0E0B1E001C01D92A1303F
S1130040B207E1F7BED09AC2DBCFB6D14DD287E872
S113005093E10197F1F700C000005E9A8FE493ECFE
S11300600197F1F700C000005E988FE493EC0197CC
S1130070F1F700C0000008953AD2882379F05F9A1E
S11300808FE493EC0197F1F700C000005F988FE4D0
S113009093EC0197F1F700C0000008955D9A8FE496
S11300A093EC0197F1F700C000005D988FE493ECA6
S11300B00197F1F700C000005D9A8FE493EC01977B
S11300C0F1F700C000005D988FE493EC0197F1F71D
S11300D000C000000895559A579A509885B18C6EC7
S11300E085B984B18C6E84B924985F9A8FE493ECBB
S11300F00197F1F700C000005F988FE493EC01973B
S1130100F1F700C00000F7D15F9A8FE493EC0197F8
S1130110F1F700C000005F988FE493EC0197F1F7CA
S113012000C0000055D05D9A8FE493EC0197F1F77D
S113013000C000005D988FE493EC0197F1F700C0D4
S11301400000CED05D9A8FE493EC0197F1F700C0E4
S113015000005D988FE493EC0197F1F700C0000074
S11301608EEF9AEC94D083E190E09BD0E89AE9E694
S1130170F0E0808182608083789408951F920F92CA
S11301800FB60F9211242F933F934F935F936F9366
S11301907F938F939F93AF93BF93EF93FF9318D164
S11301A0FF91EF91BF91AF919F918F917F916F914B
S11301B05F914F913F912F910F900FBE0F901F9021
S11301C0189589DF6CE370E085E290E0CDD0FACF3A
S11301D0599887EA91E60197F1F700C00000599A0F
S11301E083E294EF0197F1F700C000000895CF93E4
S11301F0DF93C0E0D1E0880F8E778883198226E0F0
S113020042E0BE01CE0184D18981DF91CF9108956E
S1130210CF93DF93C0E0D1E09C01369527953695C6
S1130220279536952795206828838295880F807EA8
S113023089831A8226E043E0BE01CE0169D18A8116
S1130240DF91CF910895E0E0F1E0880F8E7781602F
S11302508083618326E042E0BF01CF0159D1089534
S1130260E0E0F1E09C013695279536952795369583
S11302702795206820838295880F807E8061818302
S1130280628326E043E0BF01CF0142D10895CF93BA
S1130290C82F692F82E0D7DF6C2F81E0D4DFCF91A4
S11302A00895CF93C82F692F84E0CDDF6C2F83E0AE
S11302B0CADFCF9108951092FD0166EF82E3C3DF98
S11302C00895682F70E06B50710962957295707F84
S11302D07627607F7627636080E092E0C1DF08952F
S11302E01092FE0167E08AE2AEDF68E988E1ABDFE5
S11302F065E98EE2A8DF63E080E092E0B1DF61E0CF
S113030081E092E0ADDF60E882E092E0A9DF60E99D
S113031086E092E0A5DF60E887E092E0A1DF60E19B
S113032088E092E09DDF61E280E292E099DF60E89C
S11303308AE389DF60E68FE386DF60E48EE383DFB0
S1130340BADF84E1BEDF64E086E37DDF60E086E35C
S11303507ADF109200021092FF0189EF90E001977A
S1130360F1F700C000000895CF93DF93FC01909152
S1130370FD0191111EC0EB015F9A8FE493EC01978C
S1130380F1F700C000005F988FE493EC0197F1F758
S113039000C0000080910002882319F0109200022E
S11303A009958091FF01882321F01092FF01FE013D
S11303B00995DF91CF9108958091FE01846008959D
S11303C064E089E340DF089560E089E33CDF089559
S11303D0AF92BF92CF92DF92EF92FF920F931F934F
S11303E0CF93DF9381E08093FD0181E300DFB82E9A
S11303F083FF4FC0809100028F5F80930002E0DF93
S113040080E093E005DFA82E8091FE01EA2CF12C18
S11304101E141F049CF4C7019C0125583E4F69011A
S1130420CBE7D1E001E013E00B571140C8018C0F7A
S11304309D1FEEDE8993CC15DD05C1F78091040183
S113044090E00B9718161906ACF4C5E0D1E0C12C66
S1130450D12C04E011E03FEFC31AD30AC601875F31
S11304609C4FD6DE8993F801808190E00B97C816E3
S1130470D9068CF3A0920401C7018F5F9C4FC8DE9C
S113048080937901C7018E5F9C4FC2DE80937A010D
S11304909BDFB0FE1CC08091FF018F5F8093FF0142
S11304A084E2A5DE8093FC01982F9F7321E009F07C
S11304B020E09091030120FB90F982958695869522
S11304C08370880F997F892B877F80930301109213
S11304D0FD01DF91CF911F910F91FF90EF90DF907D
S11304E0CF90BF90AF90089585E091E008958091FA
S11304F003018170089581E58CBD0895FC0180811C
S11305008EBD0DB407FEFDCF8EB5FB01808308952B
S1130510CF92DF92EF92FF920F931F93CF93DF93CB
S1130520EC018B0185B161E070E06B0102C0CC0C81
S1130530DD1C2A95E2F79C2D9095892385B94423E7
S113054089F04150E42EF12C8FEFE81AF80AEC0EF2
S1130550FD1EB801CE01D2DF21960F5F1F4FEC16AE
S1130560FD06B9F785B1C82AC5B8DF91CF911F91AF
S11305700F91FF90EF90DF90CF900895F894FFCF04
S9030000FC
