S01200004144435F5465737465722E7372656374
S113000013C022C021C020C01FC01EC01DC01CC000
S11300101BC01AC019C018C017C016C015C014C020
S113002013C012C011C010C011241FBECFEFD2E004
S1130030DEBFCDBF21E0A0E0B1E001C01D92A3303E
S1130040B207E1F720D0A2C0DBCF579A559A549A51
S1130050509885B18C6A85B984B18C6A84B9249826
S113006038D0089589B1809581700895FBDF81119E
S113007009C00CD08536910518F05D9A5F980895F3
S11300805D985F9A0895E1DFF1DFFECFCF93DF93B0
S1130090569A549AC0E0D1E0982F9695969596601A
S11300A098838295880F880F807C89835E9A5E98F6
S11300B027E043E0BE01CE0121D05E9A5E9889819B
S11300C08F7090E0982F88272A81822BDF91CF911F
S11300D0089581E58CBD08955D9AE7EAF1E63197CC
S11300E0F1F700C00000FC0180818EBD0DB407FE55
S11300F0FDCF8EB5FB0180835D980895CF92DF928A
S1130100EF92FF920F931F93CF93DF93EC018B0138
S1130110549A579A559A5C9A3FE38DE093E0315094
S113012080409040E1F700C000005C9885B161E038
S113013070E06B0102C0CC0CDD1C2A95E2F79C2D0B
S11301409095892385B94423A9F04150E42EF12CDC
S11301503FEFE31AF30AEC0EFD1E5F9A5F98B801B5
S1130160CE01BADF5F9A5F9821960F5F1F4FEC169E
S1130170FD0699F785B1C82AC5B8DF91CF911F91C3
S11301800F91FF90EF90DF90CF900895F894FFCFF8
S9030000FC
