S01200004D6573682D42657461372E73726563A5
S113000013C04BC02CC02BC02AC029C028C027C095
S113001026C025C024C023C022C021C020C01FC0C8
S11300201EC01DC01CC01BC011241FBECFEFD2E0D8
S1130030DEBFCDBF11E0A0E0B1E0E6E2F7E002C030
S113004005900D92A030B107D9F722E0A0E0B1E00D
S113005001C01D92AE35B207E1F7F0D062C3D0CF34
S1130060FC01208130E0322F22278181A901482B15
S1130070CA010895FC017083618308955D9A8FE439
S113008093EC0197F1F700C000005D988FE493ECC6
S11300900197F1F700C0000008951F920F920FB668
S11300A00F9211242F933F934F935F936F937F93FA
S11300B08F939F93AF93BF93EF93FF93809100012E
S11300C080618093000137D2809100018F7E8093FC
S11300D00001FF91EF91BF91AF919F918F917F911B
S11300E06F915F914F913F912F910F900FBE0F90A1
S11300F01F901895559A569A579A85B18C6E85B962
S113010084B18C6E84B92498C0D29FD0A9D18EEFCB
S11301109AEC09D181E090E010D17894E89AE9E66C
S1130120F0E080818260808388E2EDEFF1E0DF011E
S1130130982F1D929A95E9F7E3E3F2E0DF011D920F
S11301408A95E9F75F9A8FE493EC0197F1F700C081
S113015000005F98AFE4B3EC1197F1F700C0000022
S11301600895EF92FF920F93CF93DF937C01EB01FD
S113017061E070E0CE0186D2B701CE016ED268E2B2
S1130180CE0168D200E020E040E062E575E4CE01F3
S113019066D248E2BE01C701E9D0ACDFDF91CF915E
S11301A00F91FF90EF90089502965ADF6DEF71E082
S11301B0D8DF0895CF93DF93EC015F9A8FE493EC3B
S11301C00197F1F700C000005F988FE493EC01976A
S11301D0F1F700C00000CE01069642DF8535954454
S11301E011F4CE01E1DFDF91CF910895CF93DF9336
S11301F0809100018860809300015F9A8FE493EC02
S11302000197F1F700C000005F988FE493EC019729
S1130210F1F700C0000082D1EC0119D2AE01BC019B
S113022083E392E075D283E392E0C4DF809100011E
S1130230877F80930001DF91CF9108955BDF6EE3A8
S113024070E086EF90E050D1FACF599887EA91E6B2
S11302500197F1F700C00000599A83E294EF0197E7
S1130260F1F700C000000895CF93DF93C1E0D1E01F
S1130270880F8E778883198226E042E0BE01CE0182
S113028011D28981DF91CF910895CF93DF93C1E09B
S1130290D1E09C0136952795369527953695279577
S11302A0206828838295880F807E89831A8226E0BD
S11302B043E0BE01CE01F6D18A81DF91CF9108954A
S11302C0E1E0F1E0880F8E7781608083618326E02E
S11302D042E0BF01CF01E6D10895E1E0F1E09C01E5
S11302E0369527953695279536952795206820834A
S11302F08295880F807E80618183628326E043E05B
S1130300BF01CF01CFD10895CF9382E0ADDFC82FD5
S113031081E0AADF2C2F30E0322F2227A901482BBD
S1130320CA01CF910895CF93C82F692F82E0C8DF07
S11303306C2F81E0C5DFCF910895CF93C82F692F2B
S113034084E0BEDF6C2F83E0BBDFCF910895CF93B1
S113035084E08ADFC82F83E087DF2C2F30E0322F40
S11303602227A901482BCA01CF910895BF92CF92A9
S1130370DF92EF92FF920F931F93CF93DF93D82FC7
S1130380C92F7B01B42E69E080E090E0A6DF609184
S11303907C01675F6B0D81E090E09FDF61E682E0A6
S11303A090E09BDF68E883E090E097DF61E084E021
S11303B090E093DFA9DF192F682F85E090E08DDFAF
S11303C0612F86E090E089DF6D2F87E090E085DF84
S11303D06C2F88E090E081DFBADFC92F682F89E0B5
S11303E090E07BDF6C2F8AE090E077DFC0907C01A7
S11303F0D0907D018BE0C80ED11CBB2061F086013A
S1130400E701EB0CF11C6991C80167DF0F5F1F4F17
S1130410CE15DF05C1F76B2DC6015FDF65E08BE10B
S11304204FDFDF91CF911F910F91FF90EF90DF90FD
S1130430CF90BF90089510922C0266EF82E340DFC4
S11304400895682F70E06B50710962957295707F02
S11304507627607F7627636080E092E03EDF089530
S113046010925B0267E08AE22BDF68E988E128DF0B
S113047065E98EE225DF63E080E092E02EDF61E053
S113048081E092E02ADF60E882E092E026DF60E922
S113049086E092E022DF60E887E092E01EDF60E120
S11304A088E092E01ADF61E280E292E016DF60E821
S11304B08AE306DF60E68FE303DF60E48EE300DFB8
S11304C0BADF84E1BEDF64E086E3FADE60E086E35F
S11304D0F7DE10925D0210925C0289EF90E00197C2
S11304E0F1F700C000000895CF93DF9320912C0210
S11304F0211111C0EB01FC0120915D02222319F0AE
S113050010925D02099580915C02882321F010927B
S11305105C02FE010995DF91CF9108958091050158
S113052090E00B97089564E089E3CADE089560E0E3
S113053089E3C6DE0895AF92BF92CF92DF92EF9225
S1130540FF920F931F93CF93DF9381E080932C024C
S113055081E38ADEB82E83FF4FC080915D028F5FF6
S113056080935D02E0DF80E093E08FDEA82E80912F
S11305705B02EA2CF12C1E141F049CF4C7019C019D
S113058022583E4F6901CEE7D1E001E013E00E5757
S11305901140C8018C0F9D1F78DE8993CC15DD05B1
S11305A0C1F78091050190E00B9718161906ACF479
S11305B0C6E0D1E0C12CD12C05E011E03FEFC31A15
S11305C0D30AC601875F9C4F60DE8993F80180815E
S11305D090E00B97C816D9068CF3A0920501C701C9
S11305E08F5F9C4F52DE80937A01C7018E5F9C4FD0
S11305F04CDE80937B019BDFB0FE1CC080915C02CB
S11306008F5F80935C0284E22FDE80932B02982F0D
S11306109F7321E009F020E09091040120FB90F900
S11306208295869586958370880F997F892B877F1D
S11306308093040110922C02DF91CF911F910F91AE
S1130640FF90EF90DF90CF90BF90AF90089586E039
S113065091E00895FC01658308950CDD0895FF92EF
S11306600F931F93CF93DF93EC01F42E122F069672
S113067001DDF9861A870B87DF91CF911F910F91C6
S1130680FF9008950296F6DC089581E58CBD0895E7
S1130690FC0180818EBD0DB407FEFDCF8EB5FB013C
S11306A080830895CF92DF92EF92FF920F931F936E
S11306B0CF93DF93EC018B0185B161E070E06B01B6
S11306C002C0CC0CDD1C2A95E2F79C2D9095892361
S11306D085B9442389F04150E42EF12C8FEFE81AB8
S11306E0F80AEC0EFD1EB801CE01D2DF21960F5F91
S11306F01F4FEC16FD06B9F785B1C82AC5B8DF91BE
S1130700CF911F910F91FF90EF90DF90CF900895BC
S1130710FB01DC0102C001900D9241505040D8F71A
S10907200895F894FFCFD8
S9030000FC
