S0120000427574746F6E436F6D6D2E737265630A
S113000013C0B3C02CC02BC02AC029C028C027C02D
S113001026C025C024C023C022C021C020C01FC0C8
S11300201EC01DC01CC01BC011241FBECFEFD2E0D8
S1130030DEBFCDBF11E0A0E0B1E0E2E9F6E002C02E
S113004005900D92A830B107D9F722E0A8E0B1E0FD
S113005001C01D92A730B207E1F7DCD018C3D0CF9E
S11300602FD2C1D2FC018081813671F45C9A8FE475
S113007093EC0197F1F700C000005C98EFE4F3EC17
S11300803197F1F700C000000895B0D2882359F1E8
S11300905B9A8FE493EC0197F1F700C000005B9842
S11300A08FE493EC0197F1F700C000005C9A8FE4B1
S11300B093EC0197F1F700C000005C988FE493EC97
S11300C00197F1F700C000005B9A8FE493EC01976D
S11300D0F1F700C000005B988FE493EC0197F1F70F
S11300E000C0000008955C9A8FE493EC0197F1F747
S11300F000C000005C988FE493EC0197F1F700C016
S113010000005C9A8FE493EC0197F1F700C00000C3
S11301105C988FE493EC0197F1F700C00000089518
S113012084B1866484B984B1886284B920988AB120
S113013088698AB985B1856085B9299A81E05AD2DE
S113014063D26BD06AD18EEF9AECD5D083E290E083
S1130150DCD07894E89AE9E6F0E0808182608083DC
S1130160089583B18095817008951F920F920FB600
S11301700F9211242F933F934F935F936F937F9329
S11301808F939F93AF93BF93EF93FF93A5D1FF9169
S1130190EF91BF91AF919F918F917F916F915F91FB
S11301A04F913F912F910F900FBE0F901F90189574
S11301B0CF93DF9365E470E080E390E06BD1D1DF0F
S11301C0882301F15F9A8FE493EC0197F1F700C063
S11301D000005F988FE493EC0197F1F700C00000F2
S11301E0CEE1D0E0609100017091010144E086E12C
S11301F090E0A4D02197B1F765E470E080E390E04B
S113020049D105C065E470E080E390E043D1DF911B
S1130210CF91089585DFCCDFFECF299883EC99E058
S11302200197F1F700C00000299A87E893E101974C
S1130230F1F700C000000895CF93DF93C8E0D1E048
S1130240880F8E778883198222E042E0BE01CE01B6
S1130250E8D18981DF91CF910895CF93DF93C8E0EE
S1130260D1E09C01369527953695279536952795A7
S1130270206828838295880F807E89831A8222E0F1
S113028043E0BE01CE01CDD18A81DF91CF910895A3
S1130290E8E0F1E0880F8E7781608083618322E05B
S11302A042E0BF01CF01BDD10895E8E0F1E09C0137
S11302B0369527953695279536952795206820837A
S11302C08295880F807E80618183628322E043E08F
S11302D0BF01CF01A6D10895CF9382E0ADDFC82F2F
S11302E081E0AADF2C2F30E0322F2227A901482BEE
S11302F0CA01CF910895CF93C82F692F82E0C8DF38
S11303006C2F81E0C5DFCF910895CF93C82F692F5B
S113031084E0BEDF6C2F83E0BBDFCF910895CF93E1
S113032084E08ADFC82F83E087DF2C2F30E0322F70
S11303302227A901482BCA01CF910895DF92EF9299
S1130340FF920F931F93CF93DF93D82FC92F7B0175
S1130350D42E69E080E090E0A8DF60918301675FBC
S11303606D0D81E090E0A1DF61E682E090E09DDF29
S113037068E883E090E099DF61E084E090E095DF55
S1130380ABDF192F682F85E090E08FDF612F86E0C7
S113039090E08BDF6D2F87E090E087DF6C2F88E0A3
S11303A090E083DFBCDFC92F682F89E090E07DDF18
S11303B06C2F8AE090E079DFC0918301D0918401B1
S11303C02B96DD2061F08701ED0CF11CF8016191A1
S11303D08F01CE016ADF21960E151F05B9F765E07E
S11303E08BE156DFDF91CF911F910F91FF90EF903A
S11303F0DF90089566EF82E34BDF0895682F70E085
S11304006B50710962957295707F7627607F7627AD
S1130410636080E092E049DF089581E0EBD068E911
S113042088E136DF65E98EE233DF63E080E092E065
S11304303CDF61E081E092E038DF60E882E092E056
S113044034DF60E986E092E030DF60E887E092E044
S11304502CDF60E188E092E028DF61E280E292E054
S113046024DF60E88AE314DF60E68FE311DF60E4F1
S11304708EE30EDFBFDF8CE0C1DF64E086E308DFDC
S113048060E086E305DF89EF90E00197F1F700C0B3
S113049000000895CF93DF93FC01EB0190910602D5
S11304A0992319F010920602099580910502882378
S11304B021F010920502FE010995DF91CF91089574
S11304C0809104028460089564E089E3E1DE089584
S11304D060E089E3DDDE0895AF92BF92CF92DF92B0
S11304E0EF92FF920F931F93CF93DF9381E3A4DEE8
S11304F0B82E83FF51C0809106028F5F809306025D
S1130500F894E2DF80E093E0A8DEA82E8091040254
S1130510EA2CF12C1E141F049CF4C7019C012B57D8
S11305203E4F6901C5E8D1E001E013E005581140F0
S1130530C8018C0F9D1F91DE8993CC15DD05C1F791
S113054080910C0190E00B9718161906ACF4CDE0DD
S1130550D1E0C12CD12C0CE011E03FEFC31AD30A37
S1130560C601875F9C4F79DE8993F801808190E012
S11305700B97C816D9068CF3A0920C01C7018F5FA4
S11305809C4F6BDE80938101C7018E5F9C4F65DEBB
S1130590809382019DDF7894B0FE1AC08091050299
S11305A08F5F8093050284E247DE982F9E7F21E0CF
S11305B009F020E090910B0120FB90F9829586953B
S11305C086958370880F997F892B877F80930B0191
S11305D0DF91CF911F910F91FF90EF90DF90CF901B
S11305E0BF90AF9008958DE091E0089580910B0144
S11305F081700895811104C08CB580628CBD08950A
S11306008CB58F7D8CBD089581E58CBD0895FC016A
S113061080818EBD0DB407FEFDCF8EB5FB018083B6
S11306200895CF92DF92EF92FF920F931F93CF938F
S1130630DF93EC018B0185B161E070E06B0102C0D6
S1130640CC0CDD1C2A95E2F79C2D9095892385B965
S1130650442389F04150E42EF12C8FEFE81AF80A74
S1130660EC0EFD1EB801CE01D2DF21960F5F1F4FA5
S1130670EC16FD06B9F785B1C82AC5B8DF91CF914C
S11306801F910F91FF90EF90DF90CF900895F89411
S1050690FFCF96
S10B06920201616161610000D5
S9030000FC
