S0120000427574746F6E436F6D6D2E737265630A
S113000013C00BC32CC02BC02AC029C028C027C0D2
S113001026C025C024C023C022C021C020C01FC0C8
S11300201EC01DC01CC01BC011241FBECFEFD2E0D8
S1130030DEBFCDBF11E0A0E0B1E0E4E4F7E002C030
S113004005900D92AA30B107D9F722E0AAE0B1E0F9
S113005001C01D92AB30B207E1F76FD371C3D0CFAB
S1130060299883EC99E00197F1F700C00000299AE0
S113007087E893E10197F1F700C000000895CF935A
S1130080DF93CAE0D1E0880F8E778883198222E05B
S113009042E0BE01CE01E8D18981DF91CF9108957C
S11300A0CF93DF93CAE0D1E09C013695279536952E
S11300B0279536952795206828838295880F807E1A
S11300C089831A8222E043E0BE01CE01CDD18A8128
S11300D0DF91CF910895EAE0F1E0880F8E77816097
S11300E08083618322E042E0BF01CF01BDD1089546
S11300F0EAE0F1E09C0136952795369527953695EB
S11301002795206820838295880F807E8061818373
S1130110628322E043E0BF01CF01A6D10895CF93CB
S113012082E0ADDFC82F81E0AADF2C2F30E0322F30
S11301302227A901482BCA01CF910895CF93C82F34
S1130140692F82E0C8DF6C2F81E0C5DFCF9108956D
S1130150CF93C82F692F84E0BEDF6C2F83E0BBDF11
S1130160CF910895CF9384E08ADFC82F83E087DF9F
S11301702C2F30E0322F2227A901482BCA01CF911E
S11301800895DF92EF92FF920F931F93CF93DF9323
S1130190D82FC92F7B01D42E69E080E090E0A8DF3E
S11301A060918501675F6D0D81E090E0A1DF61E6FC
S11301B082E090E09DDF68E883E090E099DF61E011
S11301C084E090E095DFABDF192F682F85E090E0A5
S11301D08FDF612F86E090E08BDF6D2F87E090E06A
S11301E087DF6C2F88E090E083DFBCDFC92F682FA6
S11301F089E090E07DDF6C2F8AE090E079DFC091A8
S11302008501D09186012B96DD2061F08701ED0CEC
S1130210F11CF80161918F01CE016ADF21960E1560
S11302201F05B9F765E08BE156DFDF91CF911F9190
S11302300F91FF90EF90DF90089566EF82E34BDF1C
S11302400895682F70E06B50710962957295707F04
S11302507627607F7627636080E092E049DF089527
S113026081E0EBD068E988E136DF65E98EE233DFCF
S113027063E080E092E03CDF61E081E092E038DF1F
S113028060E882E092E034DF60E986E092E030DF0B
S113029060E887E092E02CDF60E188E092E028DF0C
S11302A061E280E292E024DF60E88AE314DF60E642
S11302B08FE311DF60E48EE30EDFBFDF8CE0C1DF8C
S11302C064E086E308DF60E086E305DF89EF90E021
S11302D00197F1F700C000000895CF93DF93FC016C
S11302E0EB0190910802992319F0109208020995E4
S11302F080910702882321F010920702FE010995DC
S1130300DF91CF910895809106028460089564E09E
S113031089E3E1DE089560E089E3DDDE0895AF92CC
S1130320BF92CF92DF92EF92FF920F931F93CF93DE
S1130330DF9381E3A4DEB82E83FF51C080910802CD
S11303408F5F80930802F894E2DF80E093E0A8DEF8
S1130350A82E80910602EA2CF12C1E141F049CF492
S1130360C7019C0129573E4F6901C7E8D1E001E06C
S113037013E007581140C8018C0F9D1F91DE89932B
S1130380CC15DD05C1F780910E0190E00B9718168E
S11303901906ACF4CFE0D1E0C12CD12C0EE011E071
S11303A03FEFC31AD30AC601875F9C4F79DE899356
S11303B0F801808190E00B97C816D9068CF3A092BF
S11303C00E01C7018F5F9C4F6BDE80938301C701D1
S11303D08E5F9C4F65DE809384019DDF7894B0FE30
S11303E01AC0809107028F5F8093070284E247DE80
S11303F0982F9E7F21E009F020E090910D0120FBD1
S113040090F98295869586958370880F997F892BBC
S1130410877F80930D01DF91CF911F910F91FF9002
S1130420EF90DF90CF90BF90AF9008958FE091E070
S1130430089580910D0181700895811104C08CB5D7
S113044080628CBD08958CB58F7D8CBD089581E547
S11304508CBD0895FC0180818EBD0DB407FEFDCFD7
S11304608EB5FB0180830895CF92DF92EF92FF92C5
S11304700F931F93CF93DF93EC018B0185B161E060
S113048070E06B0102C0CC0CDD1C2A95E2F79C2DB8
S11304909095892385B9442389F04150E42EF12CA9
S11304A08FEFE81AF80AEC0EFD1EB801CE01D2DF78
S11304B021960F5F1F4FEC16FD06B9F785B1C82AC8
S11304C0C5B8DF91CF911F910F91FF90EF90DF900E
S11304D0CF90089518DFAADFFC018081813659F599
S11304E05B9A8FE493EC0197F1F700C000005B98EE
S11304F0EFE4F3EC3197F1F700C000005C9A8FE46D
S113050093EC0197F1F700C000005C98EFE4F3EC82
S11305103197F1F700C000005C9A8FE493EC0197E7
S1130520F1F700C000005C98EFE4F3EC3197F1F7C9
S113053000C0000008955B9A8FE493EC0197F1F7F3
S113054000C000005B98EFE4F3EC3197F1F700C0D2
S1130550000008956EDF882359F15B9A8FE493ECD1
S11305600197F1F700C000005B988FE493EC0197CA
S1130570F1F700C000005C9A8FE493EC0197F1F767
S113058000C000005C988FE493EC0197F1F700C081
S113059000005F9A8FE493EC0197F1F700C000002C
S11305A05F988FE493EC0197F1F700C00000089581
S11305B05C9A8FE493EC0197F1F700C000005C981B
S11305C08FE493EC0197F1F700C00000089584B123
S11305D0866484B984B1886284B98AB188618AB92D
S11305E05D9A2A9A2A9A299A81E027DF30DF38DD3A
S11305F037DE8EEF9AECA2DD809102019091030127
S1130600A7DD10920A02109209027894E89AE9E6AA
S1130610F0E080818260808308951F920F920FB66C
S11306200F9211242F933F934F935F936F937F9374
S11306308F939F93AF93BF93EF93FF9370DEFF91DC
S1130640EF91BF91AF919F918F917F916F915F9146
S11306504F913F912F910F900FBE0F901F901895BF
S113066089B185FB882780F991E0892708956AEA92
S113067072E08AE692E031DE8091090290910A02EA
S11306808130904840F110920A02109209025C9A5B
S11306908FE493EC0197F1F700C000005C988FE4BD
S11306A093EC0197F1F700C000005B9A8FE493ECA0
S11306B00197F1F700C000005B988FE493EC019779
S11306C0F1F700C0000044E064E071E080910001B3
S11306D09091010156DDC4DF882301F110920A02D2
S11306E0109209025C9A8FE493EC0197F1F700C031
S11306F000005C988FE493EC0197F1F700C00000D0
S11307005C9A8FE493EC0197F1F700C000005C98C9
S11307108FE493EC0197F1F700C000006AEA72E0FD
S11307208AE692E0DADD8091090290910A0201964C
S113073090930A0280930902089549DF98DFFECF5F
S1070740F894FFCF57
S10D074416003100616161610000DC
S9030000FC
